:100000000020002079020000390200003D020000BB
:10001000410200004502000049020000000000000B
:100020000000000000000000000000004D02000081
:1000300051020000000000005502000059020000BB
:1000400039010000610100002501000021020000CB
:100050003502000071020000750200007502000008
:1000600075020000750200007502000075020000B4
:1000700075020000750200007502000075020000A4
:100080007502000075020000750200007502000094
:100090007502000075020000750200007502000084
:1000A0007502000075020000750200007502000074
:1000B0007502000075020000750200007502000064
:1000C00030B5114B114A1B881278D318DBB2E12BE3
:1000D00002D0E52B17D109E00D490E4A0423013B5C
:1000E000DBB2C85C9854002BF9D10CE00A4C0948EB
:1000F0000A490B4A0423013BDBB2E55C1D54CD5C8D
:100100009D54002BF7D130BD280000202A0000208C
:100110002D0000200C000050350000203100002090
:1001200010000050034A002313708022D205137080
:100130007047C04600000020064B00225A70802302
:10014000DB055969044A0A405A615969034A0A4061
:100150005A61704700000020FFFFFFFEFFFFFFEF26
:1001600070B5A023DB051C7A244D0F2214402A7899
:10017000234E002A06D0234B1B68984700232B7080
:1001800034703AE09B7A3278E10702D51E4A138038
:1001900007E008210C420AD01C4B1A785218D2B240
:1001A0001A70FFF78DFF1A4B1B68984719E0A107DB
:1001B0000DD5082A01D0012A01D1164B02E0124ABE
:1001C0001380154B1B6898470022104B08E063070B
:1001D00007D5114B1B6898470C4B1A780832D2B2DE
:1001E0001A70074B01221C70A023DB051A720B4901
:1001F00010221A7200220A701A7270BD2C000020A0
:100200002B00002024000020280000202A000020CD
:100210001C00002020000020180000200C000020FE
:10022000034A002393708022D20553707047C04662
:10023000000000207047C04600B5FEE700B5FEE7AD
:1002400000B5FEE700B5FEE700B5FEE700B5FEE746
:1002500000B5FEE700B5FEE700B5FEE700B5FEE736
:1002600000B5FEE700B5FEE700B5FEE700B5FEE726
:1002700000B5FEE700B5FEE738B58023DB05FB21BE
:100280005A6859609968082199600022D968DA6033
:10029000196C8021C9011964196944491961444BD9
:1002A000444900E004C38B42FCD3434B434A9B0ABE
:1002B000DBB21370424B43491B689B0ADBB253709D
:1002C000414B1B689B0ADBB29370404B1B689B0A37
:1002D000DBB2D37000230B70032308E0581C155CBD
:1002E000D45CA54207D9D45C0134E4B20C54013B80
:1002F000DBB2FF2BF2D1304A1178354A1170111C54
:10030000FF2B03D12D4BDB781E2B04D9FF234B7021
:100310008B70CB700BE02A4B1B681B7853702A4BF9
:100320001B681B789370294B1B681B78D370284B74
:10033000DA78FF2A08D09A78FF2A05D05B78FF2B5D
:1003400002D000F067F838BD224B234AC021136069
:10035000224A49001360224A22481360224A13604D
:10036000224B02225A50C02191405C5820405850E4
:100370001F49042408692043086162B61A6080237B
:10038000DB051A6C802212021A641A6C8022D201D8
:100390001A649A68802252009A60A022D20591685D
:1003A000144991601A6C00221A64FEE7104F000095
:1003B000000000203C000020FF030000310000206E
:1003C00008040000350000200C04000010040000A8
:1003D0002D000020F9030000240000201800002058
:1003E0001C000020FF00FFFF2000002000E100E0D3
:1003F00000ED00E00000C8427047FFFFFFFFFF0272
:100400004D314830434F3435FF5B0000FF7300002F
:10041000FF7B0000F7B503F0C3FC05F033F80020C4
:1004200005F0F2FB4E4B33331B785E4273411026CE
:10043000F61A4C4B1E704C4B1A68013A53425A4103
:100440004A4B1A704A4B1C78002C22D1494A01258C
:1004500014701D7000F052FA474B281CDA789A701D
:100460005C7005F0D1FB03F07FFB01F017FB8023EC
:10047000DB051A6C7F218A431A6400F0F5FD02F057
:100480004BFF01F00BFB01F0A3FA3C4B02201B6871
:1004900098473B4C2378002B03D13A4B1B78002B19
:1004A0000FD0237800F094FC22782E4B002A01D044
:1004B0001E7001E00D221A70314A00231370314A78
:1004C00013702C4B1B78002B2CD02F4D2B78002B2E
:1004D00028D02A4C13202368984700F00FFA03F025
:1004E00008FB03F08BFA294B187801F0A1F800F013
:1004F000C7FD274A01231370264A138002F0DEFF4E
:100500002B78002BFCD123681420984700F0F6F9D3
:1005100003F0EFFA03F072FA1C4B187801F088F838
:10052000104B1E7000F07EFF0E4C277878B2132817
:1005300000D98DE105F0D4F874008C0178018C01AC
:100540008C018C018C018C018C018C018C018C0143
:100550008C0168008C013A0030005F008C01890139
:10056000AE0900201D03002050110020EB010020E7
:10057000E9010020EA010020AA0A0020F801002079
:10058000E8010020E7010020E5010020480D0020DF
:10059000F603002008030020B14B00221A7000F07F
:1005A0007DFEB04B1B78002B00D055E1AE4C23787C
:1005B000002B03D00020AD4903F0B8FC2378002BBA
:1005C00006D001210020AA4A0B1C009003F056FC23
:1005D000A84B987803F078FAA74DE87B03F052F81F
:1005E000A64C2060287C03F04DF811236060EB5688
:1005F000EA7B5343A3609A4B00221A70A04B1B78EE
:10060000A04B187801F014F8954B9D4D00241C70F8
:100610002B7800F029FD03F08BFF00F025FD2C70F6
:100620008F4B01241C7000F09BFC974B1B689A05B4
:1006300013D5964A964B04201A60964B19680143CD
:100640001960196802208143196019680C431C6005
:10065000914B00211960914B1A60914C0320236843
:10066000984703F03FF823680520984702F0E4FF1D
:100670008C4C8D4D01204042211C2A1C04F04CFC66
:10068000794B1B78002B03D00C20884903F04EFCDB
:10069000874A236813802B685380734B1B78002B89
:1006A00006D00123022100930C200B1C03F0E6FB73
:1006B0007B4C06202368984703F0F4FF04F064F9AC
:1006C00004F098FB00F062F904F006FD04F07EFEF1
:1006D000784B1B78002B2AD123680720984701F01C
:1006E00051FA23680820984702F0B2FF02F0BAFFDF
:1006F00023680920984701F069FA01F0D1FB2368CB
:100700000A20984701F06EFC02F044FB23680B209E
:10071000984701F0B8FE01F0D7FF23680E209847F4
:1007200002F084F802F0F2F923681020984700F0F4
:1007300081F95B4B0F201B6898475E4B1B78002BA1
:100740003CD102F04FFA5C4B1A685C4B002A04D192
:100750005B490968002900DD1A70474A197832326E
:100760001278914201D300221A701B78002B21D1FC
:10077000534B514C1B68002B09DD2068002806D123
:10078000394B1B78002B02D04E4903F0CFFB4E4B68
:100790001B6898472368002B0ADD494B186800281E
:1007A00006D1314B1B78002B02D0484903F0BEFB29
:1007B00002F072FA414B1A7801321A70324B1B6800
:1007C0009A0523D5344B18682A4B1A7919782F4B80
:1007D000181A531C984004F08DFF234C2F4D23789A
:1007E0002860002B03D00020394903F09FFB2378B9
:1007F000002B06D0002001212A1C0423009003F0C6
:100800003DFB244B01211A688A431A608023DB05D3
:100810009A6C01210A439A6400F01EFC2D4B0020C3
:10082000185600F05DFE17E00F4B1B78002B03D02D
:100830000520294903F07AFB012000F0F9FE002091
:1008400000F0F6FE1323237006E000F00DFC03E039
:10085000134B11201B689847204B1F70EBE5C046D7
:10086000EA010020E0010020EB01002034590000E3
:10087000AC0A0020AA0A0020AE090020FC020020D9
:100880001D030020480D002058000020FFFFFF003E
:1008900014E000E010E000E018E000E0FC010020BF
:1008A000F8010020341100203811002038590000D0
:1008B000541100204811002020010020CA0000200F
:1008C0009C0D00203E590000000200204759000006
:1008D00051590000B30100205E590000560000206D
:1008E00008B501F099FD01F0B3FD034B1B68984773
:1008F00002F0D2F908BDC0460002002010B504F095
:10090000EFFD054C00202368984704F019FE23688A
:100910000120984710BDC046F80100207FB5174D53
:10092000174B5B1B0393174B1B78002B06D0002043
:10093000012103AA0423009003F0A0FA124E18E04C
:10094000142C00DD1424E1B2081C03E00138C0B20D
:100950002B5C33540028F9D10A4B1B78002B04D0B0
:10096000094A0123009003F089FA039B2D191B1BF0
:100970000393039C002CE3D17FBDC0460C1E0020D6
:1009800000200020EB0100205411002013B51E4B65
:100990001B78002B37D01D4C002323701C4B0420E8
:1009A0001B6898471B4B1C4A59681B681180538071
:1009B0001A4B1B78002B06D001230221009318202C
:1009C0000B1C03F05BFA2378154C002B1AD0134B49
:1009D0001B78002B03D00020124903F0A7FA124A1B
:1009E000012313702268022A04DCD21822600F4A05
:1009F000137008E0FFF774FF0D4B0D221A700023EF
:100A0000236000E0236013BD1C0300203D11002083
:100A1000F80100207001002054110020EB0100209B
:100A200084010020D0580000481100201409002043
:100A30001D030020F0B5BA4B85B00433DB7F0024E2
:100A4000B8490A2209E0013BDBB2101C58430818E0
:100A50003C25405F002800D00124002BF3D1B24B8D
:100A6000B24A1B7807E0013BDBB2191D4900895EE1
:100A7000002900D00124002BF5D1AD4A002C04D16F
:100A80001368AC498B4201D001331360AA4B00229A
:100A90001A70A44B1A68A24B002A7CD1A34A126890
:100AA000002A78D11A1C34321078002841D1A34A88
:100AB0001278012A17D1A24B1870A24B1A70A24BC0
:100AC0001870A24B1B78002B02D0A14903F02EFA1C
:100AD000994B01221A7001F09FFC01F0B9FC974B71
:100AE00000221A7067E19B4A3C331B7812689A42D5
:100AF0001FDB964B1B78002B02D0974903F016FAA8
:100B0000964B87491A683D3101321A6009788A424A
:100B10000FDB002018608A4B18708A4B18708B4BC3
:100B20001B78834202D08E4903F000FA824B0222E6
:100B30001A70854B8B4A002119701068854B19601B
:100B4000131C88420EDD013810608C4200D0116009
:100B50001A68012A00D018E100221A60764B03229D
:100B60001A7028E1804B81490433DB8F8B4200D11E
:100B70000BE17F490968994200DA06E1684B6C484D
:100B8000191C3E3109780068884200DAFDE03F33E5
:100B90001B781360F9E00433D87F00231A1C7549D1
:100BA00031E00138C0B20A2444435E4F3D193C266F
:100BB000AD5F002D27DD0C193C27E45F002C22DD02
:100BC00044000D19AF88574D3EB22C19A48825B2A8
:100BD000761B02D43C1BA4B201E0E41BA4B2051CAA
:100BE000644E504F10356D00A218AC5BED5B27B220
:100BF0002EB292B2BF1B02D4641BA4B201E02C1B24
:100C0000A4B2E3189BB20028CBD1564908604D49E5
:100C10000C784349002C40D034310B78002B00D0A5
:100C2000B3E04A4B1B78002B02D0534903F07EF906
:100C30004F4C524A23681380514B1B685380434BDF
:100C40001B78002B06D001230221009300200B1CEF
:100C500003F014F9324920684A8F3B4B904214DA72
:100C6000414A474845321278006890420DDA1B78B5
:100C7000002B00D089E0374B3C311A6809788A4252
:100C800000DB82E001321A607FE001221A70314AF3
:100C900000231360314A136077E0081C3430007879
:100CA000002872D13248098F0068884209DB2E493A
:100CB0003348453109780068884202DB2249012027
:100CC00008701F490978002908D11549088F27495C
:100CD00088425AD01C490978002956D01149096820
:100CE000012905DC0E49C98E8A4201D88B4249D9B7
:100CF000134B00201870134B01221A70124B1870FE
:100D0000124B1B78834202D0114903F00FF90A4BB2
:100D100001221A7001F080FB01F09AFB35E0C04619
:100D2000AE0900209C0D00207C090020E00000207E
:100D3000C8010020FFFFFF7FB3010020B4010020A5
:100D4000DC010020DD010020D4010020EB010020A7
:100D5000DA580000D8010020E4580000D00100203B
:100D6000EC580000CC010020480D0020FFFF0000DF
:100D70003411002020030020F558000054110020F9
:100D8000381100200D4B01221A700D4B34331B78A3
:100D9000002B10D00B4B1A78002A0CD00A4A0021E5
:100DA0005156032907D00949097848424141013188
:100DB000117000221A7005B0F0BDC046B4010020C9
:100DC000AE090020DC010020B3010020DD0100207D
:100DD00010B5544B1B78002B0AD0534B1B68984717
:100DE00001F01AFB01F034FB01F056FF02F090FB1A
:100DF0004E4B02211A688A431A6019688022D20574
:100E0000906891601968082081431960196890689A
:100E1000916019680420814319601B689168936090
:100E2000404B1878424B1B78002832D0002B03D05F
:100E30000020404903F07AF83F4B802219685200A5
:100E40000A431A601A68A023DB0599689A60374B39
:100E50003A4A19680A401A601A688023DB059968C3
:100E60009A60374A012111701968802252040A439E
:100E70001A60C046C046C046C04662B6314A1968CC
:100E80000A401A60BFF36F8FFA20C00002F06EFCB8
:100E900011E0002B02D02C4903F048F82B4802F057
:100EA00065FC2B4B1B78002B05D12A4B1B78002BA4
:100EB00001D102F059FE1D4B02211A680A431A6043
:100EC00019688022D2059068916023490131C87F5A
:100ED0000821002806D01868014319601968906835
:100EE000916005E0186888431860196890689160FF
:100EF0001A6804210A431A601A688023DB05FA2065
:100F00009968C0009A6002F031FC064B1B78002BF8
:100F100006D0124C0D20236898472368122098476A
:100F200010BDC046E8010020680000201400002029
:100F3000EB010020FB5800000C000020FFFEFFFF2B
:100F40002C000020FFFFFFFE0159000040420F006F
:100F5000E5010020E4010020AE090020F801002096
:100F600010B5314B02241978304B4AB21B78002B54
:100F700025D02F4B1B78002B21D12E4B1B78002B1B
:100F80001DD12D4BA24207D02C48807B002803D1D5
:100F90002B480068002803D00021196001240EE0CE
:100FA000284A18689268904201DA013018600029D6
:100FB00036D0214B00241B68934216DA30E063B22E
:100FC00093422DD0012B1DD0022B02D0002B0CD030
:100FD00024E01D4B1B78002B03D000201B4902F09E
:100FE000A5FF002002F078FB18E0174B1B78002BC0
:100FF00003D00020164902F099FF124B586802F006
:101000006BFB0BE0104B1B78002B03D00020114929
:1010100002F08CFF0B4B186802F05EFB024B1C7059
:1010200002F04CFB10BDC0463C0000201C03002019
:10103000E3010020E20100205C000020700100209C
:10104000E0000020FC020020EB0100200959000014
:101050000E5900001359000008B502F05FFB08BDEF
:1010600008B502F04DFB08BD08B502F0E5FA802393
:10107000DB059A6C01210A439A64FFF7F1FF08BD72
:10108000F0B587B0FFF7F0FF784A794C53781578C0
:10109000784810E0013BDBB29A1C6746B218790130
:1010A0005200125BC9184F003A52734A00278F54FE
:1010B000002BEFD163465A1ED2B2002B04D0561C2F
:1010C0002B1CB6019446F3E76C4B6D4C1B786D48B6
:1010D00067496D4A0EE0013BDBB2E55CC65C013559
:1010E0000236AD01AD196D006E5A5D00AE52674D0E
:1010F0000026EE54002BEED1652503955B4C66E08F
:10110000FFF7B2FF2678637805962DE0013BDBB24E
:10111000584FF018049D40009A1CC05BAD18544F06
:101120006D00EF5BC71B04D4514FED5B451B02956F
:1011300003E04F4FED5B2D1A0295049887184C4839
:101140007F00C05B4B4F8446F0184200151C62467E
:10115000EA53494D2F5C029DBD4200DA3D1C464FCB
:101160003D54002BD2D10B1C591EC9B2002B05D007
:10117000481C8001059B4E010490F2E73F4B3C4A1E
:101180001B7822E03E4D013BDBB23E4FEE5C3E4819
:10119000FD5C59000136095A0235B0014019400082
:1011A000875A805ACF1B01D4091A00E0411AB601B0
:1011B00075192F486D00465B33485D002E52334849
:1011C000C55CA94200DA291CC154002BDAD1039B6B
:1011D000013BDBB20393002B92D161782478244A3F
:1011E00004941EE0013BDBB24501ED18214F6D0078
:1011F000EE5B2588AC469D1C664509D92788F61B01
:101200008F01BC4665446D00B6B2AF5AAE5205E0E0
:101210008E0175196D00AE5A0026AE52002BE1D139
:10122000011C481EC0B2002905D0411C184FCC013A
:10123000049BE419F2E7114B134F1B78104E15482D
:1012400010E0013BDBB2F55C1349ED015A006D186B
:10125000D45B29888C4203D92D88641B845201E019
:1012600000258552002BECD107B0F0BD0A03002009
:1012700000400040F8030020B30A00207C09002051
:10128000307500002A75000014020020A40A002016
:10129000024000403C0D002082400040F0B587B085
:1012A00002F04AF802F060F90028FBD1524B1B789B
:1012B000022B09D0514B524940331A7853425418EB
:1012C000E05401339342FADD4C4E4E4F331C403311
:1012D0001C7864420CE0FA7880231219D2B2DB0544
:1012E0001A71FFF7C1FE2878201803F0F3FD0134CE
:1012F000351C40352B789C42EDDD002625E02C780E
:101300002F1C6442403F1AE03E4BDA7880231219CA
:10131000DB05D2B21A71FFF7A7FE2D7804A9651973
:1013200005AA281C03F0F8FD3549049B4A5DFF2BF4
:1013300000DDFF239A4200DA1A1C4A5501343D1C95
:1013400040352B789C42DFDD01362F4A2B4D137838
:1013500040359E42D3DB01F0DFFF2C492A780D781F
:101360002B4927480978012303919B1A0021294C16
:101370001018944611E0C618721E1278C75C6A43B2
:101380000292039A5743029AD71972786A43BA189D
:10139000944201DB94B2191C01339C45EBDC194BE0
:1013A0001D4CDA785118C9B29970134B187800287F
:1013B00005D12378002B02D0184902F0B7FD23781D
:1013C000002B0BD00D4B0020403319780C4A4900FC
:1013D0000131C9B20123009002F050FD0E4B1B7881
:1013E000002B06D0012100200D4A0B1C009002F0BA
:1013F00045FD07B0F0BDC046E0010020480D0020CB
:1014000093010020AA0A0020870D0020540000202C
:1014100055000020FFFF0000EB0100201A590000DA
:10142000AC0A002013B5244B244C1B68002B0ED0B3
:101430002378002B03D00020214902F077FDFFF72D
:101440006DFA2378002B02D102F038F8FEE72378FA
:10145000002B09D01B4C2368DA0005D5FFF75EFA94
:101460002268194B13402360144C2378002B22D0A0
:10147000144B1B685A011ED51449002002F056FD7A
:10148000134B144A1988118059885180998891808A
:10149000DB88D380104B1B7813812378002B05D079
:1014A000002005210223009002F0E8FC054B0B4AC6
:1014B00019680A401A6013BD0C1E0020EB010020C1
:1014C0002059000058000020FFFFFFEF27590000BF
:1014D0000402002054110020AA0A0020FFFFFFFB95
:1014E00010B5022804D0032845D0012833D115E0D7
:1014F000FFF7F6F9294B2A4C40331B782949502233
:101500002370294804F0A6F9284B0D201B68984742
:10151000FFF7F4F92378102B1AD114E0FFF7E0F964
:101520001E4B1F4C40331B782149502223701E480C
:1015300004F090F91D4B0C201B689847FFF7DEF96B
:101540002378102B04D11B4BDA789A7002F0D1FA71
:1015500002F054FA20E0184B1A78002A05D0174AF6
:1015600011680131116000221A70154B1A68132A94
:1015700005DD00221A600A4B10221A700CE00F4B96
:101580001A683B2A08DD00221A600E4B01201B68F6
:1015900098470D4B01221A7010BDC046AE090020BD
:1015A0001D0300204A740000480D0020F8010020AF
:1015B0009A740000AA0A0020C4010020C001002083
:1015C000BC0100206C000020E701002010B50C4B8E
:1015D00001229979002300E0231C5C1C101CE4B25A
:1015E00098408142F8DA074A072113718022D20518
:1015F0000B401902106C044B03400B43136410BDE5
:10160000480D00205C000020FFF8FFFF064B07227A
:10161000D9798023DB05186C1140044A0902024085
:101620000A431A647047C046480D0020FFF8FFFFC8
:10163000F0B58DB00490FFF7C9FFC74BC748DE78FF
:10164000002105969C7807E0013BDBB2EE1876009E
:101650003152002BF8D10592059A059E013AD2B27B
:10166000002E02D0231C5501F3E7049F002F05D064
:10167000BB4B059E5B7B0696039304E0B94B0227A8
:101680009B780697039368460C210B56B24C0B933C
:101690005B420993AAE06A4618239A56E67A271C09
:1016A00002920DE0301C00212A1C029B02F04CF932
:1016B000301C01212A1C029B02F046F90136F6B2C9
:1016C000BB7AFA7AD2183B1C9642EBDB049E002EC2
:1016D00000D10E3D6846182108565E7B9E4F029051
:1016E0000DE0301C00212A1C029B02F02DF9301C59
:1016F00001212A1C029B02F027F90136F6B27A7BFF
:101700003B7BD3189E42ECDBFFF7AEFC964B1B787D
:10171000002B06D00123181C191C0BAA009302F001
:10172000ADFB00258C4E904F0EE03B78002B09D08E
:101730008E4BEA01D2180023B178012000930223D6
:1017400002F09CFB0135EDB2F3789D42EDD30B9A8C
:10175000B678D2B202960792804D39E0013BDBB2F7
:10176000089E991C7118824F4900CE5BD118480021
:10177000405BB7B2B84214DCC01B011C803101DAF7
:1017800080204042D7187F2800DD7F207949785497
:10179000D11848002E521C276E467748BE5D0E5465
:1017A00013E0049E002E10D0744EB04208D0714E4B
:1017B0008E578019874203DA6F480E5C01360E544B
:1017C000D118012749007F426F52002BC6D16346D2
:1017D0005E1EF6B2002B06D0721C92010892029B8C
:1017E0007201B446F1E70B9B013B0B930B9D099EE5
:1017F000B54200DB4FE7049F002F45D0A078E37887
:1018000004906178564A069124780294117CD07A2B
:101810005B4C0818C0B20790127B8918C9B20891B6
:10182000554A28E0039E013BDBB2002E01D1C718C8
:10183000D655069EB14202D2029FBB420CD3EF188E
:10184000C6180997975DBC46099FE75DBC44089F91
:10185000BC44674697550BE0EF18C6180997975D8B
:10186000BC46099FE75DBC44079FBC44674697554B
:10187000002BD7D10B1C591EC9B2002B3ED02625F8
:10188000049B48014D43F3E7637CE27907259A18EE
:101890000392344AA07B0221525E2679AD1A6D0074
:1018A0008619EDB23449844609E0B818445C013227
:1018B0002C194454D2B2B242F7DB0133DBB2039AA3
:1018C000934202DA62465F01F5E7234A2A49107C17
:1018D000D37B567995799E194519844609E0B81845
:1018E000445C01320E3C4454D2B2AA42F7DB0133CD
:1018F000DBB2B34202DA62465F01F6E71A4B1B78AD
:10190000002B13D005201F4902F010FB0EE02B78AE
:10191000002B08D0184B7201A178D21805200123A2
:10192000009302F0ABFA0136F6B202E00A4C0E4D1B
:10193000059EE378B342EAD8002101200A1C404208
:10194000022302F001F8012040420121002202237B
:1019500001F0FAFFA47825E00A030020F803002034
:10196000480D002004020020EB01002084400040CC
:1019700000400040640E0020B30A0020FFFF00007A
:10198000367500002E590000013C0021E4B20A1C0B
:10199000201C012301F0D8FF0121201C00220B1C78
:1019A00001F0D2FF002CEFD1FFF730FE0DB0F0BDFB
:1019B00008B503F0C5FD054B01201B6898470120C1
:1019C00004F022F901F0D6FD08BDC046F801002060
:1019D000F7B52C4A002010602B4A2C4E118C2C4A53
:1019E0001160721DD27FF17D501E44426041294C2E
:1019F000081A00902060B01DC57F377E6B1E5842CC
:101A000058413B1A01936360012A02D100202081D2
:101A100005E02623F05E490003F0BAFE2081012D87
:101A200002D10023638105E02823F05E790003F0F2
:101A3000AFFE6081154F019B28203E5E590070006B
:101A4000801903F0A5FE4043124C43008000E36080
:101A5000C318236126203D5E009B68005900401991
:101A600003F096FE2C376061A0613B78002B02D119
:101A7000E661256201E0E5612662074B01225242E0
:101A80005A60F7BD9C0D0020480D0020AE090020D3
:101A90002002002024090020CC000020F0B5244BB7
:101AA00087B01E7EDB7D721CD91C02330393059226
:101AB0000023204A0491181C059CE51AEF010197A8
:101AC000BC5AB852049CAD0129194F00BC5A1A4C9B
:101AD000B85200272F550F550199184F0133CF19D0
:101AE00002973988388003996F1879000191895AD3
:101AF0000199885212496D18002129703955F71A39
:101B00000C4D0137D8DA00220136039B111CB601B7
:101B100058002F5A2A52F0184700EC5BEA53064F40
:101B2000F954013B3954012BF2D107B0F0BDC04646
:101B3000AE0900200040004000200040024000406C
:101B400001200040F7B50D4B197EDE7D481C0136A3
:101B500000230190019C321CE71ABF01951CAC4682
:101B6000BC44074C00256046013A0555501CF5DA87
:101B70000133CA1A0132EDDAF7BDC046AE090020C2
:101B80000020004000B50D4B08229B5E0C4A111C42
:101B900035310978127F4B4352B29B11934200DAE0
:101BA000131C084A13608022D2051B05190990698D
:101BB000054B03400B43936100BDC04670010020FC
:101BC000480D0020380D0020FFFF00F0F0B5A94AB5
:101BD000A9481168076893B08C460D2200217F2523
:101BE000FF24019790008318A44E5B00F318998797
:101BF000002738331F7267463950013A019FD2B22D
:101C000039500026DD725D721C739C72D980FF2AE8
:101C1000E8D19B4A9B4B117E98689B4C974D0139AC
:101C20000490A6812E60884202DA01300490986008
:101C3000DE681196002E02DD013E1196DE60D17D38
:101C40001A6801398A4201DA01321A605A68002A98
:101C500001DD013A5A60049F1198874200DAA3E03F
:101C600019685B68844A0693884B12681B68864C27
:101C70000D93804B10911B6809920A93A4898448A4
:101C80000C94069D109EB54200DD81E0049A6F46DB
:101C900010210132CF5D9201331C0292079705E0BB
:101CA00000272F54069F013B9F4271DC02999C1C28
:101CB0000D192A5C774E6900895B0E2AF0D80D9DBC
:101CC000491B002A00D171E0013AD4B2099E049F59
:101CD000A200B5184F432E68B44667442F600A9D92
:101CE0000E1CAF183D685E43AC4615196D0001959A
:101CF000624D6644AC46019D3E60AC446546AF8F84
:101D000038352E7ACF1903960926AE57AF80019643
:101D10000C9E6F46B4460126B444039E01360396DA
:101D20006646B6B20C960C26F75D049E2F72019F94
:101D3000BE4200DA6E72514E15196D0075193835B4
:101D40000A26AE57049FB74200DDAF724B4E1519FD
:101D50006D00751938350B26AE57B34200DAEB72B9
:101D60001519464F6D007D1938350C26AE57B34214
:101D700000DD2B731219414C5200A2183E25545F0E
:101D80003832A1428EDD069F013BD1809F428DDD1E
:101D90000499119A01390491914200DB71E76B4675
:101DA0003024E45A384B9C8113B0F0BD0239CA4349
:101DB000D21711400391049E039F71435F430E911C
:101DC0000025D9B20F970591032201959C460894EE
:101DD000314E324F079CB15C059DBB5C6118EB181E
:101DE00049B201315BB289010233CB181C5C65B288
:101DF000691E0D2927D8089B029F8E00FF180B979C
:101E0000099F7118BB190A9F4900BF191B4E009703
:101E1000019F71183831002F1AD1E4B201940B9D43
:101E20000E34E4B22C541C680E9E009FA4191C6052
:101E30003B680F9C039D1B193B608C880B7A2C1907
:101E400001338C800B72531E002A10D0DAB2BFE728
:101E5000029E0899019C73181F2CF4D0AC42F2D05A
:101E60001F251F261D540196531E002AEED16346DE
:101E700018E7C0464400002048000020240200204B
:101E8000AE090020E410002070010020380D002071
:101E90000020004000400040F8590000F4590000C4
:101EA000F0B589B00F234649FF2202E058180138E7
:101EB0000270013B002BF9D1424BD86819689A682F
:101EC0005B6801900393404B02911B6804933F4B66
:101ED0005B7F069368E0079B881C3D4A1818835C6B
:101EE0005BB21F2B5AD13B4A4000825A049D04200A
:101EF000521B0592384A0138C0B21456374A64441E
:101F0000125601348A18A4010232314EA218B45C70
:101F10000E2C41D81F2B3ED0A3423DD0002C3BD0ED
:101F20000A275D1E7D432E4A2D4E5519621E7A43A7
:101F3000B2183E27EE5F3E27D55F1A1CAE4200DD89
:101F4000221C0A25013A6A43254E069DB2183E27F7
:101F5000D25F059E6A43921196421DDD9C4202D9D2
:101F60001A1C231C141C5E1E154AF6B2975D002530
:101F700000976F467D57013CE4B26F1C09D0A54223
:101F800003DA6D462D78155506E0A54204DDE4B26E
:101F90005455945500E0231C0028ABD10139039E11
:101FA000B14298DA6246013A019FBA4205DB531CFE
:101FB0009B01029907939446F1E709B0F0BDC04632
:101FC000EC020020E4100020380D0020480D002015
:101FD0000020004000400040F8590000F459000083
:101FE00024020020F0B5D44A8DB011680023D01827
:101FF000BE300024005F0A3B441EA0411D1C09188E
:102000008C35F4D1CD4B11601B68BE320393CC4BA1
:102010000E241B680593CB4E013C33575F1C01D146
:1020200073E0031CC74DE856461CFAD12B555F1CC4
:102030006BD003989D0046193768A000BC46039FEB
:102040003F58BC4467463760059E059F75192E684A
:102050003858B94F30180A262860301C58433818B1
:1020600038300927C7575579BC466FB2BC4500DDEB
:1020700045725E43B04D9079AE1938360A27F7574E
:1020800045B2AF4200DAB072D679AB4F06960A2657
:10209000301C5843381838300B254557AC466D4630
:1020A00018352D786DB2AC4503DD6F461825EF5D10
:1020B000C7725E43A04D107AAF1938370C26BE5751
:1020C00045B2AE4200DA38730A20584356889A4F18
:1020D000069638183E26855F1826AC466D46755F15
:1020E00038300A26AC4503DA6F461825EF5BC78007
:1020F0005E43914801398719BB8F1088C318BB878D
:10210000383710793B7AC3183B720A3A002C00D05A
:1021100081E7894F261C3D1C3C3503953960251C01
:102120008848002233189A56013219D11D70B542E1
:1021300012D0824BB1001A68AB005058D050804A80
:102140007D4812685158D1500A22131C6B43C018A5
:102150003C30039903F07EFB3B6801359D4205DA74
:10216000039901360A3103910E2ED9D1764B1B68A3
:10217000DA063BD5754B1B78002B03D0042074493D
:1021800001F0D4FE0025734E2CE0691C89013368F0
:102190007768714A0391A44612E0039C991C611868
:1021A000885C40B2441E0D2C09D8664C20180138BA
:1021B000007840B2441C02D00130C0B28854013BC8
:1021C000BB42EADA614B64461B78002B09D0634BB3
:1021D000634FAA01D97DD21901230420009301F095
:1021E0004DFE01355D4F3B7E9D42CEDB5D4B1B6856
:1021F000002B10DD5C4B5D4A998911801B8953804F
:10220000524B1B78002B06D001230221009317208C
:102210000B1C01F033FE484B55481D1C40CD4F4967
:102220000796478908970A8D476816B2059686690A
:102230000997B7B2D21B049792B2313109780A924A
:102240003E4A00200691176803902FE0039A0A2364
:10225000534301CF059948433749CB183C22995E37
:10226000099B594303F094FA0899424A08181378D5
:1022700080B22880002B15D100B2B04207DA069B4D
:10228000801B584304998011081828800AE0059A99
:10229000101AB04206DA069B801B58430A99801137
:1022A000081A2880039A023501320392039B07988B
:1022B0008342CBDB204D2E492D68284A05950E8997
:1022C0000D680796D38C08954D691FB2AEB2111CEC
:1022D000049706962F3109789B1B9BB209913032E7
:1022E0001278154E0B93164B00200A921F68203669
:1022F000039050E0039A0A23534301CF04994843C3
:102300000D495B183C22995E089B594303F040FA43
:102310000799184A0818137880B23080002B36D1FC
:1023200000B2A84228DA099B401B58430699801145
:10233000081830802BE0C04624020020480000200E
:1023400044000020EC02002058000020EB01002097
:1023500064590000E410002000200040AE09002075
:10236000422000409C0D00207001002054110020EC
:1023700024090020DF010020049A101AA84206DA7E
:102380000A9B401B58430B998011081A3080039A0E
:10239000023601320392039B05988342AADB1B4B52
:1023A0001A1C2A3217781A1C2B32127828215E5EEA
:1023B000039226255A5F2C3304921B781449069306
:1023C0000025B4461DE000268B5F002B16D0114A75
:1023D000A8180423C25E2026835F002F01D0664622
:1023E000B21A039E002E01D0049EF31A069E002E00
:1023F00002D0161C1A1C331C8280038401340A315B
:102400000235059EB442DEDB0DB0F0BDAE09002002
:10241000600200202402002030B50A4B0021043362
:10242000DB7F094A0A24081C07E0013BDBB2251CBC
:102430005D435519A987054DE854002BF5D113606C
:1024400030BDC046AE0900209C0D00206401002074
:1024500000B5084A01235B425360074B002111601D
:102460001B7804E0013BDBB2181D40008152002BB9
:10247000F8D100BDE00000207C0900204943404322
:10248000401870477047F0B5834B00220433D97F62
:1024900087B00B1C81480A26151C07E0013BDBB204
:1024A000341C5C430419A28738342572041C002BA9
:1024B000F4D17B4B1A680B1C914200DD131C236086
:1024C0007848794A794B0E24FF21013CE4B2A500FB
:1024D0000155AB50002CF8D16F4B251C0433DB7F2A
:1024E000261C0393724B1B6904936D4B1B68059369
:1024F00047E0704C635D002B42D06F4CAB00E3585B
:10250000049C1B011B1901936C4B6A000127D31813
:1025100000247F42029320E00A2363436048C318EB
:102520003C215B5E002B16D0029A6300C31898888A
:1025300093885B4AC01A231C10335B00995A029A95
:1025400000B2138BC91A09B2FFF798FF019B98429A
:1025500001DA271C01900134E4B205988442DBDBE8
:10256000791C0DD04F4B5049D857BA00013004D0D8
:102570008858019CA04203DD00E0019C8C50DD5591
:102580000135039CEBB2A342B3D3341C0025444E67
:1025900028E04448475D7BB2013321D06900FFB297
:1025A0003E4B711889887A009A189180291C103145
:1025B0003A1C4900895B10325200D1520A22101C89
:1025C0007843111C69431B18181C71183C303C31AE
:1025D00003F040F9344BAA00D258374BBF00FA50F1
:1025E0000135EDB233689D42D3DB3DE02D4E3357CC
:1025F000013336D10A236343EB183C201B5E002BCA
:102600002FD0254B2E4A0433DF7F002326E0294EAE
:10261000F65C002E20D10026905F00281CD1214AB4
:10262000670011551E491D48CF19BF885A008218EE
:102630009780271C10371A1C7F007F5A10325200D7
:1026400017520A225343C018131C6343C9183C3164
:102650003C3003F0FFF804E001330A32D9B2B9424A
:10266000D5D30134E4B200E00D4D2B689C42BDDBB4
:10267000094B0C490433DD7F124BFF201C1C0E3428
:102680001A78AA4202D28A5C1A7000E018700133EC
:10269000A342F5D107B0F0BDAE0900209C0D00208B
:1026A00024020020E8030020F8100020FFFFFF7F35
:1026B00024090020EC010020F800002080090020FF
:1026C000D80D0020EC020020F7B5424B0021196024
:1026D000414B0A241960414B081C0433DB7F404DF9
:1026E0001A1CA44611E0013AD2B2261C5643AE1978
:1026F0003836367AB04200DA301C66465643AE1998
:102700003C27F65FB14200DA311C002AEBD1324A95
:10271000506011602F4A0A201168314A07E0013BDE
:10272000DBB2041C5C4314193834247A0919141CD4
:10273000002BF4D1274B19601368002B0FDD264BBB
:10274000284A5B6811805380274B1B78002B06D0EA
:102750000123022100931D200B1C01F08FFB236835
:10276000002B19DD214A0823D15E214B0C24125F76
:10277000181C3D331B783C30534300789B11C31821
:10278000994209DC184B1B78002B03D00020194913
:1027900001F0CCFBFFF740FE114B174A1B68127883
:1027A000934212DB0B4B124A1868D18E0A4B8842B7
:1027B00003DB118F5868884203DA528F5B689342BB
:1027C00007DB0E4B01221A7003E0002B01D10B4AEC
:1027D0001370F7BD4C1100200C020020AE09002040
:1027E0009C0D002054110020EB01002070010020FE
:1027F000480D00206C59000040000020F50000202A
:1028000038B5041C081C002A07D054435843D1187B
:1028100020184D10401902F0BBFF38BD10B5431A07
:10282000DC171B196340FFF7EBFF10BDF0B5A94B98
:102830000025043387B0DC7F2E1C46E0013CE4B267
:102840000A22624399183831888800283DD0A24F67
:102850003F5D002F2AD1A1490978002907D09A1895
:1028600001213C321D200223009101F007FB0A20C8
:1028700060439B4B9B4918183C27C25F38309446F5
:102880002627CA5F1F1C944508DB4E310A789649FB
:10289000007A49684A439211904216DA0A2262434A
:1028A000BA18D58738321672958008E08D4A00B282
:1028B0002827D25F824208DDCD800E728D808B4A40
:1028C000A1008D501A68013A1A60854B002CB5D1D1
:1028D0001C60874B9C737F4B0433DC7FC7E0013C5B
:1028E000E4B20A236343ED18AA8F3835002A00D1D9
:1028F00093E07C4B12B21B8D19B2521A52105B003E
:10290000D318AB807A4B9A7B002A0DD1794A1257A3
:10291000002A09D1784A012111708022D20550691C
:10292000000E00060143516101229A73734E714BF0
:102930001A5733789A4270DB6F4B1A78002A01D00D
:1029400000221A70664D62002B6801332B60AB18B1
:102950000427D95F6A4B9A180426905F221C103214
:102960005200575F0397D75E0A1AD317039ED218F7
:102970005A40F31BDE179B197340D3180493594B2D
:102980002E229E5E049B321C0596FFF739FF059AA6
:10299000049B061C0399381CFFF732FF4D4A131C99
:1029A0002D331B782A1C5BB29E4207DD5549C9694D
:1029B000CF1ABE4203DB4E1EF61A00E01E1C454B2A
:1029C0002E331B785BB2984207DD4E49096ACF1A55
:1029D000B84203DB481EC01A00E0181C6300D3187D
:1029E0009E80231C10335B00E8520A2565433D4B53
:1029F000434E30201F5E761955193C21705E3C22F3
:102A0000A95E3A1CFFF70AFF3836A8873835307AB6
:102A1000297A3A1CFFF702FF2872314B620099189D
:102A20003748898882189180221C10325200D15A6E
:102A300011520A22111C6143401859180D1C3C30D8
:102A40003C3102F007FF3C23EA5E3835294B002A6F
:102A50000CD024491A5D3231097850B2884206DA26
:102A600001321A5501235B42AB8000E01A551C4D20
:102A7000002C00D033E7224E29683268224B914265
:102A800025DA19681748013119603E30007840B2E4
:102A900081421CDA0F4B2A600433DC7F14E0013CD6
:102AA000E4B26300F2189288EB189A80231C10336A
:102AB0005B009A5B5A530A22111C61436818711813
:102AC0003C303C3102F0C6FE002CE8D100E01C6036
:102AD00007B0F0BDAE090020EC010020EB010020A2
:102AE0009C0D0020480D00200C020020F800002062
:102AF000700100203E110020E20100207A0D00202C
:102B0000200300202409002060010020F0B5314B93
:102B1000314D1E78314B00271A1C2F602B32127852
:102B200089B0049250001A1C069032321278079233
:102B30003022995E6B6805910293039742E0013E53
:102B4000F6B2331D5B000193EB5A002B34D004988E
:102B50001BB21B1A06995B10CB18019A20489BB236
:102B6000AB52F2008158841807981BB2814207DAF1
:102B70001B48013181500199002263606A5221E0B3
:102B8000606801371A1AD11784465018059A4840D0
:102B900011180090604642439446009A534362469F
:102BA000D0184B10C01802F0F3FD019B0399606030
:102BB000E852814204DB05E00948F200835001E05D
:102BC00002960390002EBAD1029909B02F60696075
:102BD000F0BDC0467C090020E0000020480D002028
:102BE00048090020F7B5274B27490433DB7F274AE4
:102BF000274842E0013BDBB21C1C1434640004197A
:102C00000425645F002C27D00A245C430C193C2661
:102C1000A45F002C20D05C000E19B688051937B2CD
:102C2000BC460427EF5F6546ED1B6F10BE191419F3
:102C3000A6801C1C103464000E5B1C1C0C3437B2C4
:102C40006400BC46255E67467F1B7F10BE19A652F6
:102C5000104C0126E65410E00B4D5C002E19B6888E
:102C60001419A6801E1C10361C1C7600765B0C34D2
:102C700064001653074C0026E654002BBAD10B68AB
:102C80001360F7BDAE0900209C0D002080090020D4
:102C900020010020EC010020F7B5354A354B111C0E
:102CA000333134320E7812780433DB7F32490192AB
:102CB000B446324A4BE03248013BDBB2C45C019877
:102CC000002C00D160465E008D1996190427F65F2E
:102CD000AD880096009F2EB2BE1BF717F6197E40F6
:102CE000864210DA1E1C0C367600B65E1F1C1037AA
:102CF00000967F00CF5F009EF71BFE17BF1977403D
:102D00000097874218DB580010181E1C858010366B
:102D1000194D181C76000C30755B40001552181CBC
:102D20001430400010180427C05F002804DD002C78
:102D300002D113480124C4540A245C430E4D181CCC
:102D40002C1914300D4D4000A48F28188480002BBE
:102D5000B1D10A68094B0B491A600B4B1A780B4B1F
:102D60001A700B4A0B1C31CA31C3C0CAC0C3F7BDAD
:102D7000480D0020AE0900209C0D002020010020FD
:102D800064010020CC000020F5000020F4000020A9
:102D9000E0000020F7B5194801235B424360184B5F
:102DA0001A78184B191C2B331E782A310F78002300
:102DB000B4461EE0013AD2B2134C5100615A0EB231
:102DC000F643F6170E40111D4900B5B20E52002D04
:102DD0000FD00E4E2DB28E5F002E04DCBD4207DAFE
:102DE00000250D5205E0654502DA00260E5200E08E
:102DF0000133002ADED1014A1360F7BDE000002054
:102E00007C090020480D00203C0D0020CC00002053
:102E1000EFF30880704700BA704740BA7047C0BAF5
:102E2000704770B5002816DAC0B20F230340083B84
:102E3000124A9B089B009B18032210409040FF22DF
:102E40005D68141C84408901A5430A408240281C07
:102E50001043586011E003248208094B2040C0321F
:102E6000A0409200FF24D558261C86408901B54316
:102E70000C408440281C2043D05070BD18ED00E069
:102E800000E100E0084B402219687F204906490E06
:102E900011431A6882430A431A601A688023DB05CB
:102EA00019691A617047C04608000020074B3F228D
:102EB00019687F2011401A6882430A431A601A6811
:102EC0008023DB0519691A617047C046080000209D
:102ED000074B084A196818688904890E09020240DC
:102EE0000A431A601A688023DB0519691A61704762
:102EF00008000020FF80FFFF084B40221968186877
:102F00004904490E1143064A090202400A431A6065
:102F10001A688023DB0519691A61704708000020D0
:102F2000FF80FFFF084B202219687F204906490EC9
:102F300011431A6882430A431A601A688023DB052A
:102F400019691A617047C04608000020074B5F22CC
:102F500019687F2011401A6882430A431A601A6870
:102F60008023DB0519691A617047C04608000020FC
:102F7000074BBE211A68C90118681140054A024072
:102F80000A431A601A688023DB0519691A617047C1
:102F900008000020FF80FFFF084B202219681868F6
:102FA0004904490E1143064A090202400A431A60C5
:102FB0001A688023DB0519691A6170470800002030
:102FC000FF80FFFF8023DB05186C8000C00F704777
:102FD000084B102219687F204906490E11431A68D0
:102FE00082430A431A601A688023DB0519691A6153
:102FF0007047C04608000020074B6F2219687F20E9
:1030000011401A6882430A431A601A688023DB055C
:1030100019691A617047C0460800002000B50B4BC3
:103020001968002804D04906490E1022114301E016
:103030006F2211401A687F2082430A431A601A687F
:103040008023DB0519691A6100BDC0460800002015
:10305000074BDE211A68C90118681140054A024071
:103060000A431A601A688023DB0519691A617047E0
:1030700008000020FF80FFFF084B10221968186825
:103080004904490E1143064A090202400A431A60E4
:103090001A688023DB0519691A617047080000204F
:1030A000FF80FFFF8023DB05186CC000C00F704756
:1030B000084B012219687F204906490E11431A68FE
:1030C00082430A431A601A688023DB0519691A6172
:1030D0007047C04608000020074B7E2219687F20F9
:1030E00011401A6882430A431A601A688023DB057C
:1030F00019691A617047C04608000020074BFC217F
:103100001A68C90118681140054A02400A431A604A
:103110001A688023DB0519691A61704708000020CE
:10312000FF80FFFF084B0122196818684904490E07
:103130001143064A090202400A431A601A688023B2
:10314000DB0519691A61704708000020FF80FFFF46
:103150008023DB05186CC001C00F7047084B0222AA
:1031600019687F204906490E11431A6882430A43B1
:103170001A601A688023DB0519691A617047C04616
:1031800008000020074B7D2219687F2011401A6833
:1031900082430A431A601A688023DB0519691A61A1
:1031A0007047C04608000020074BFA211A68C90181
:1031B00018681140054A02400A431A601A688023C1
:1031C000DB0519691A61704708000020FF80FFFFC6
:1031D000084B0222196818684904490E1143064A2F
:1031E000090202400A431A601A688023DB05196944
:1031F0001A61704708000020FF80FFFF8023DB0575
:10320000186C8001C00F7047084B042219687F209A
:103210004906490E11431A6882430A431A601A6824
:103220008023DB0519691A617047C0460800002039
:10323000074B7B2219687F2011401A6882430A439A
:103240001A601A688023DB0519691A617047C04645
:103250000800002000B50B4B1968002804D049066F
:10326000490E0422114301E07B2211401A687F209D
:1032700082430A431A601A688023DB0519691A61C0
:1032800000BDC04608000020074BF6211A68C9019E
:1032900018681140054A02400A431A601A688023E0
:1032A000DB0519691A61704708000020FF80FFFFE5
:1032B000084B0422196818684904490E1143064A4C
:1032C000090202400A431A601A688023DB05196963
:1032D0001A61704708000020FF80FFFF8023DB0594
:1032E000186C4001C00F704710B58023DB05041D2A
:1032F00098693F2214409043204301249861881C20
:10330000214041180A4011029869024A02400A43CA
:103310009A6110BDFFC0FFFF064B7F221968802312
:10332000DB05186C013990431140021C0A431A64F2
:103330007047C046180900208023DB051A6C7F21E6
:103340008A4301210A431A6470478023DB05DA6946
:103350000F218A4302210A43DA61DA69F0218A43A4
:1033600030210A43DA610C4A11790139C9B259771F
:10337000D8690A4901408020C0020143D961D86957
:1033800007490140A020C0030143D9619279013A65
:10339000D2B2DA777047C04604020020FFFFF0FF88
:1033A000FFFF0FFF30B51A4A1A4B11881A4CC91883
:1033B0008023DB0589B2188C1984598C002159842B
:1033C0005088164D011989B29A8C9984421EDC8C62
:1033D00092B24419DA84A4B21D8D1C85104C0019D8
:1033E00080B25C8D5885988D9985D88DDA85188E38
:1033F0001986588E5A86988E9986D88EDA86188FB6
:103400001987588F5A87988F9987D98FDA8730BD57
:1034100004020020FF070000FF030000FF0500007A
:10342000FF01000030B5224BEE241A68E40114407D
:1034300020481A687F21024022431A601C688022BB
:10344000D205156914611C4CA47C002C16D01C6894
:1034500004256404640E2C431D680C40240228409B
:10346000204318601868146910611C687B20204094
:103470001C688C43211C0143196015E01C6804255D
:103480006406640E2C431D680C408D43291C2143A7
:1034900019601968146911611C68F621C90121407D
:1034A0001C682040084318601B681169136130BD17
:1034B00008000020FF80FFFFAE09002000B572B6B3
:1034C0000F4B01221A700F4B9A7C0F4B002A07D02A
:1034D0001A68F621C901114018680C4A024005E03B
:1034E00019687B2211401A687F2082430A431A60C0
:1034F0001A688023DB0519691A6162B600BDC046EF
:1035000064000020AE09002008000020FF80FFFFBB
:1035100000B572B6104B00221A70104B9A7C104BFB
:103520001968002A08D049040422490E114318687A
:103530000C4A0902024006E049060422490E1143E2
:103540001A687F2082430A431A601A688023DB05C9
:1035500019691A6162B600BD64000020AE0900203E
:1035600008000020FF80FFFF014B18787047C0461D
:103570006400002000B58023DB05196C8022D20195
:103580000A431A64234A80211068490001431160EC
:10359000126899689A60196C802212020A431A64B0
:1035A000196C1D4A0A401A641C4B7F22597B1C4B24
:1035B000114018681B4A090402400A431A6019683E
:1035C000A022D205906891601868174901408420B4
:1035D000C005014319601968906891601349097822
:1035E00049B2002902D001290CD103E01868104922
:1035F000014003E0186880210904014319601B6839
:10360000916893608023DB05196C0A4A0A401A64AA
:1036100000BDC04614000020FF7FFFFFAE09002060
:103620000C000020FFFF80FFFFFFFF80FA02002058
:10363000FFFF7FFFFFBFFFFF044B01221A708023B3
:10364000DB05996C914399641A7070470000002063
:10365000034A012313708022D20553707047C0467D
:103660000200002000B5064B72B61A78002A04D07A
:10367000C046C04662B630BFF6E762B600BDC0467F
:103680000200002038B5094B09499A781C7951434A
:10369000084B051CC918084802F07AF8064B291C8B
:1036A00001345843A14002F073F838BDAA0A002043
:1036B00044FEFFFFFE24020040420F00054B196844
:1036C0008023DB055A690902120E090A12060A4311
:1036D0005A61704704000020014B18607047C046D3
:1036E00004000020054B01221A708023DB05596974
:1036F000802252040A435A617047C04601000020EC
:1037000000B5054B72B61A78002A03D0C046C046F1
:1037100062B6F7E762B600BD0000002000B5104BAE
:103720001B689A050CD50F4A0F4B72B61178002909
:1037300002D11978002911D0C046C04662B6F4E71C
:10374000084A094B72B61178002902D1197800296C
:1037500004D0C046C04662B630BFF3E762B600BDD3
:1037600058000020010000200000002070B513491F
:10377000134B04241960134B134D1A6822431A602B
:103780001A680224A2431A601A68012422430F4CCB
:103790001A60002222600E4A11602E782D79704343
:1037A0000135E840091A1160206811688842FBD28F
:1037B0001A6801218A431A6070BDC046FFFFFF00EE
:1037C00014E000E010E000E0AA0A002018E000E0A9
:1037D000FC01002000B50023064A984202DBD31CFE
:1037E000DB7F43430232D27F013052B2904018183F
:1037F000401800BDAE090020F0B585B0051C0C1CBA
:10380000161C002905D02B4B0233DB7F5BB2002B4B
:103810004ED0211C281CFFF7DDFF2749274F4A7A8D
:10382000097A1319511802914101CF190022039707
:10383000844613E02248C156581CC0B2CF0F0190F5
:103840007F1803987F10C719083700976F4638799B
:10385000009F0233B87001278F403A430298834299
:10386000E8DB154B6046DF79614261415B7C79188A
:103870001C19491001390134890624050C432243DF
:103880000E49104C400143180F4F01194C684A6013
:10389000AA1CD2B2C0190271002E07D00B4A012116
:1038A000525791400A1C99699A6101E09A699E6198
:1038B00005B0F0BDAE0900200A0300200010004052
:1038C000107500001810004010100040EA7400004D
:1038D00010B5084B00211B68013B08E0064C58015D
:1038E000092200198418A172013AFBD2013B002B76
:1038F000F4DA10BD180900200010004038B5FFF7B9
:10390000E7FF002101200A1C4042FFF775FF01205C
:10391000404201210022FFF76FFF0A4DAC7B0BE014
:10392000201C00210122FFF767FF0121201C0A1C37
:10393000FFF762FF0134E4B2AA7B2B79D3189C42D3
:10394000EEDB38BD0A030020F0B585B0051C0E1C67
:1039500002921F1C002905D0214B0233DB7F5BB292
:10396000002B3BD0311C281CFFF734FF1D4AC0B28E
:103970000190537A127AF6189A181B4BB91E1B7CC9
:10398000481E81414942F6B203919C4624E0002F33
:1039900007D126217143154B4919CC5C6444E4B22C
:1039A00008E0012F04D1730111495B195C5C01E04F
:1039B000039B1C400F4B02999B570236D80FC0182F
:1039C0006318DBB20093019B401059016B46081845
:1039D0001B780949F6B243549642D8DB05B0F0BDD6
:1039E000AE0900200A030020480D002036750000B3
:1039F000B30A0020107500000010004070B52A4B7B
:103A00002A4A196880240A401A601A68E405284D79
:103A1000A168A260697A032218681140254A8904C6
:103A200002400A431A601A68A168A26019688022DD
:103A300052030A431A601A68A168A260297A1868BA
:103A400007261D4A3140490502400A431A601A6898
:103A5000A168A260A97B0F2925D8EA7B0F2A22D86A
:103A60001868090700010009014319600F210A4085
:103A700018681106114A02400A431A601B68A268BE
:103A8000A360FFF749FC0E4A636C13436364FFF7BE
:103A90005CFCFFF787FCEB790A4A1E403302266C78
:103AA00016401E43266470BD14000020FFFFFCFF7B
:103AB000480D0020FFFFF3FFFFFF1FFFFFFFFFF098
:103AC000FFFF0F00FFF8FFFF00B58021C9050B794C
:103AD0005A1ED2B2984209DD00E00B710133DBB20D
:103AE0008342FADD04E00A71013AD2B28242FADA84
:103AF00000BD38B5174CA078FFF7E6FF8023DB0543
:103B000021795A68C907520052080A435A606079FD
:103B100003225D6810491040800329400143596029
:103B2000A0790E495D6810400003294001435960A7
:103B3000E0790B495D6810402940800201435960DB
:103B4000217A58680A401102064A02400A435A6024
:103B500038BDC046AA0A0020FF3FFFFFFFCFFFFF8E
:103B6000FFF3FFFFFFFCFFFFF8B58023DB051A68BA
:103B70007A4A002108201960106014689D689C60D2
:103B8000774C21602468DD68DC60FE25754CED0112
:103B9000256024681D691C615C6959619C69996193
:103BA000DC69D9611C6C8024E4011C645C6C596480
:103BB0009C6C6D4C99642160A024E405A568A1600B
:103BC0001C6C6A49214019641C6880214905214305
:103BD000196067490131C97F002903D01168084382
:103BE000106002E011688143116011689868996063
:103BF000136804263343136013688025ED05A96814
:103C0000AB60136802273B4313601368A968AB607D
:103C100013680120834313601368AA68AB60FFF741
:103C2000EDFE544B1C229A56A969534B1205F240E3
:103C30000B401343AB61FFF761FE504A504B01212B
:103C40001A60504B08241A68102032431A601A6810
:103C5000BA431A604C4BC0225200995020219F5009
:103C60009E509C509850995040219950C022BA4083
:103C70009858FF24A043C024204398509C584348A0
:103C800004409C509C584248204080242404044313
:103C90009C509C582402240A2C439C50C122BA40B8
:103CA0009858041CFF2084430C439C509C58374870
:103CB000204080242402204398509858344C2040BF
:103CC0009850344A10693043106162B608220120CE
:103CD0001E6018601F601A602F4B20201024DC67C4
:103CE000D867D967FFF746FC214CE07D217EFFF7BE
:103CF000FBFAE37C002B26D01A4B01211868274AD7
:103D00004000400E08431968000611400143196045
:103D100019682869296119684900490E0F43390655
:103D20001F6817400F431F601968286929611968C7
:103D30004900490E0E43196836060A4032431A609C
:103D40001B682A692B61FFF7D4FEFFF7C1F8FFF764
:103D50000FF9FFF77DF9FFF765FBF8BD14000020B0
:103D600010000020080000200C000020FFFF7FFF53
:103D7000AE090020480D0020FFFF00F0FFFFFF000C
:103D800014E000E010E000E000E100E0FF00FFFFD1
:103D9000FFFF00FF00ED00E004E100E0FFFFFF8017
:103DA00008B50C4A0C4B0D4901E001CA01C38B4216
:103DB000FBD30B4B0B49002200E004C38B42FCD326
:103DC000FFF726F8084B002200E004C38342FCD32F
:103DD00008BDC046FC5900003C0000205C000020EB
:103DE0005C000020EC1100200C1E002000B5134BDD
:103DF0001B68012B02D0082B1ED10FE0104B114A7B
:103E00001A60114A5A60114A114B1A60114B124A3A
:103E10001A60124A5A60124A9A600DE0094B084A29
:103E20000949136051600A4A13600A4A13605360DB
:103E300093600C4B01221A7000BDC0465011002047
:103E400068000020F90300007D3F0000B53F00003E
:103E50000002002018000020C1400000A94200001C
:103E60000D440000E401002000B50023C25C0133D2
:103E7000002AFBD1013BD8B200BDC046F7B51C1CDF
:103E800008AB1F78264B0E1C1B68012181400B429A
:103E900044D0002F07D0042C32D8224B195D0533B3
:103EA00000911F5D08E0042C2ED81E4B191C0A310E
:103EB000095D0F331F5D0091032C28D0002C28D002
:103EC00028E03A20211C01F063FC864205DD6B46A8
:103ED0001B78C0B22B70687002E02F70301C6E70BF
:103EE000361A6043019900236960AB600918F6B285
:103EF0000191FFF7E3FAFFF737FB0028FBD10BE056
:103F00000F230027009305E00F21009102E0022417
:103F100000E00124044D0192002ED2D1F7BDC0462D
:103F200058000020735900007000002038B5114B74
:103F300001221B6882400D1C134219D00E4C0B232A
:103F40002370081CFFF790FF60706378072202332C
:103F50001340934203D16378013BDBB263700023CB
:103F60006560A360FFF7AAFAFFF7FEFA0028FBD10D
:103F700038BDC04658000020700000201FB50B4C13
:103F80006B46D8732378002B03D000200849FFF735
:103F9000CDFF2378002B07D06A46012100200F3285
:103FA00004230091FFF76AFF1FBDC046EB0100200C
:103FB00087590000F8B5FFF7D7FA002870D1394BC0
:103FC0001A68002A03DC384B1B68002B3EDD37499A
:103FD00003230B70364B0433DB7F1C1C9A4200DA40
:103FE000D3B24B700A218C46324A00232D491FE080
:103FF000013303E066465E43002076180A30371826
:1040000032257F5F002FF3D0A34213DA580008183F
:104010008088DE00107000B2001280195070181CE9
:1040200010304000085A01339070000AD0700432FA
:10403000A342DFDB1D4B1F4A5A6000229A60FFF744
:104040003DFAFFF791FA0028FBD129E01A4A53689C
:10405000013325D0154B13211970116894465970FE
:10406000164B14491D78031C0DE0231C01E05E0073
:104070006644023034180622A75E5C1C002FF4D080
:104080000B70231C01310020AB42F0DB074B094AC7
:1040900098605A60FFF712FAFFF766FA0028FBD122
:1040A000F8BDC0469C0D00202001002070000020BB
:1040B000AE090020F0090020E00000207C0900206B
:1040C00008B5644B1B881D2B47D01AD8052B00D18F
:1040D00096E00DD8022B63D003D8012B00D0B7E0B7
:1040E00057E0032B00D187E0042B00D0B0E08FE035
:1040F000072B65D05CD31B2B1CD01C2B00D0A7E05A
:1041000022E0222B40D008D81F2B5DD02AD3202BB1
:104110005ED0212B00D09BE05EE0412B64D003D821
:10412000402B00D094E05BE0422B61D0602B00D0AC
:104130008EE072E0484A494B12780120196890409D
:10414000021C0A431A6083E04349444B09781A6809
:104150000120884082431A607AE03F4B1A78404B36
:104160001A7075E03C4B0D211A783E4B1A703C4A90
:1041700011701A783C4B002A02D000225A7067E076
:104180003A4A52785A7063E0334B1A78384B1A70B7
:104190005EE0314B1A78374B1A60FDF709FC57E0A7
:1041A0002D4B1A78344B9A709878FFF78DFC4FE0BE
:1041B000294B1A78304B9A70294B0F221A7047E01E
:1041C0002E4B01221A7043E02D4B01221A703FE062
:1041D0000C20FDF785F93BE00D20FDF781F937E074
:1041E000284B01221A7033E0274B01221A702FE06E
:1041F000264B01221A702BE0254B01221A7027E072
:10420000244B01221A70144B1A78234B1A701FE0AA
:10421000114B1A781E4B9A701AE00F4B1A781F4BED
:104220001A701A78104B013A012A03D840330F2232
:104230001A700DE01A4A40331278002A04D0194A45
:10424000403212781A7003E0084A403212781A702D
:1042500008BDC046280000200C0000505800002077
:104260001D030020E3010020480D00204A740000D7
:10427000DE01002050110020AA0A0020E4010020E5
:10428000DC010020E8010020E7010020E50100201A
:104290008B010020E601002092010020E0010020B7
:1042A000DD0100209A74000030B54A4B1B88342B86
:1042B00047D00CD82E2B4FD004D8002B14D01D2B58
:1042C00078D116E02F2B51D0302B73D156E0382BFC
:1042D00066D004D8352B39D0372B6BD15BE0392B26
:1042E00063D0862B66D109E03B4B5A7B3B4B1A705F
:1042F0006FE03B4B1A78394B1A706AE039493A4AF9
:104300000B78002B0FD1107834490870507837495A
:1043100008705268D118364C0878191901330870A2
:10432000062BF7D155E05268002308782B4DC018B2
:10433000023810180478581901330470082BF4D18E
:1043400047E02C4B1A68254B1A6042E08023DB05BE
:104350001A79224B1A703CE0224B274A1B781F49DE
:10436000D3181A685B680A604B6032E01A4B1A1C5B
:104370002C321178194A002907D109E0164B1A1C72
:104380002C321178154A002902D1DB8C138020E0F1
:104390001B8D13801DE0194B1A78104B1A7018E012
:1043A000174B1A780D4B1A7013E0164B1A780B4BFB
:1043B0001A700EE0903B9AB2132A0AD8094A5B01A0
:1043C000127806499B18104A9B181A685B680A60A5
:1043D0004B6030BD28000020AE0900200C000050CA
:1043E0001D0300202A000020700000200D00005056
:1043F0000E0000501C090020B1090020FF5B0000E6
:10440000FF730000FF7B0000B30A002008B5084BD3
:104410001B88862B0BD1074B9A68012A02DC9A680D
:1044200001329A609B68022B01D1FFF771F808BD39
:1044300028000020700000207FB5314C03902378C5
:104440000D1C161C002B03D001202E49FFF76EFD1A
:104450002378002B06D00121081C03AA0423009115
:10446000FFF70CFD284B03991B78284A002B15D128
:10447000131C4A3300201B5E8E1B9E4205DC131C5E
:104480004C3300201B5E9E4208DA21480123037052
:104490002048037020480370204803705378002B95
:1044A00004D01F4B5B5D5943891103911D4B6A007A
:1044B000D05A1D4B0399D45EC008144A89B2041B1C
:1044C000641A567C24B2194BB44202DC7642B442E0
:1044D00002DA00245C5505E05C5D967CA64201D0C2
:1044E00001345C55431A9BB2927E19B2914202DBB1
:1044F000094A012111700C4A6D00AB527FBDC046C4
:10450000EB0100208B590000E4010020480D002041
:10451000481100201409002030110020C40100209F
:10452000927B0000140200203C0D0020A40A002011
:10453000F0B5484B89B01B78002B03D000204649CA
:10454000FFF7F4FC454A00231370454A0C2001385C
:10455000C0B281008B500028F9D1424B424A1870FA
:1045600001231370414A1370414B197E0491DA7D87
:1045700005921B7D06930B1C2DE0013BDBB25D1CFD
:104580003C4CEA01121916883B495A005C0156520C
:10459000AD01059A07949C461AE0013AD2B2931CE9
:1045A000EB18364C5B00195B069B002B05D0D31C27
:1045B000EB185B001B5BC9184910079CA7187B0010
:1045C0001C1C2F4BE1522F4C0123891B3B554018DB
:1045D000002AE2D16346002BCFD1254B049CD97D24
:1045E000614301F0D5F8284B051C588C274C002856
:1045F00002D14023236007E08001291C01F0C8F8A4
:104600006E2800DD6E202060124C2378002B03D032
:1046100000201F49FFF78AFC1B4B1E4A5B8C55800C
:1046200013802378002B06D0012302210093002061
:104630000B1CFFF723FC184B18481B780022184965
:1046400004E0013BDBB25C00C2546252002BF8D1A3
:1046500009B0F0BDEB010020915900001C030020BF
:10466000BC110020F4100020200900203C11002083
:10467000AE0900200240004094110020004000409C
:10468000F8030020B30A0020480D0020780900201C
:104690009A590000541100207C090020A40A00202F
:1046A00014020020F0B5A04A002313709F4A85B081
:1046B00013709F4A13709F4A13709F4B1B78002BF7
:1046C00003D001209D49FFF731FC00249C4D9A4EF8
:1046D00011E03378002B0CD0EB7D297D9948C91867
:1046E000E201002312180093C9B201200223FFF750
:1046F000C5FB0134E4B2297E8C42EAD3924B1B788D
:10470000002B00D10DE1914B1A78002A1FD1904B5C
:104710001B78002B1BD0EB7D8E4C07E0013BDBB2FE
:104720005D012D182A55002BF8D1031C581EC0B26C
:10473000002B01D00B1CF6E7874A86481278490106
:1047400003E0013AD2B28C182354002AF9D1804BED
:104750007E4A19781B781170002B70D0784B1A7E26
:10476000D97D02921B7D039322E0013BDBB2591CF1
:104770008901C819794C039D4000005B002D04D0CD
:1047800089194900095B4018401059018918744D76
:104790004C00655B6F4CED080C5D281A844204DA0E
:1047A000FF2800DDFF206B4D6854002BDDD1111C6C
:1047B0004A1ED2B2002903D0029B971CD61CF4E7F4
:1047C0005F4A654B177E1B7862497F0110E0013B11
:1047D000DBB2644E5A00945BF818455626B22A1C88
:1047E000B54200DA221C12B2FF2A00DDFF22425439
:1047F000002BECD1504B1B78002B03D003205A49DF
:10480000FFF794FB00244E4D4B4E0EE03378002B07
:1048100009D0504B6201D2180023E97D0320009398
:104820000123FFF72BFB0134E4B22B7EA342EDD82A
:10483000404A012313703D4A13703B4A13703E4BAC
:104840001B78002B6DD0494B1B68580269D53C4A38
:104850008024167D137ED27D454DB618F6B224060F
:10486000B44618E0013BDBB242495A005F1C565A7D
:10487000BF0162460DE0013AD2B2911C7918374867
:104880004900095A891B8C4200DA0C1C8D4200DD5C
:104890000D1C002AEFD1002BE4D116203649FFF77A
:1048A00045FB254B354A1B7814805580002B06D0DC
:1048B00001230221009316200B1CFFF7DFFA264B81
:1048C00080201B782A4900062D4E2E4D19E0013B11
:1048D000DBB2F75C7A1C94466446EA5CA401A44609
:1048E000023262441D4C5200125B224C7F009446FF
:1048F0003A5B6446A21A904200DA101C914200DD35
:10490000111C002BE3D10C4B1C4A1B7810805180EA
:10491000002B06D001230221009316200B1CFFF769
:10492000ADFA05B0F0BDC046AC0900201409002066
:104930003011002048110020EB010020AB5900008D
:10494000AE090020844000401C030020E10100204B
:10495000E3010020640E00207C090020004000409C
:10496000F80300203C0D0020AF5900005800002043
:10497000FFFFFF7F94110020B55900005411002063
:10498000307500002A750000F0B5B34BA5B01B7858
:10499000002B00D001E2B14AB14C1278B14DB24EB9
:1049A000647C52B26B602B606B826B812B822B819B
:1049B0003360B3601B92AD4FFF22AD4B7260F2606B
:1049C00011943F7E1B78A94C09970B93E47DA44D6D
:1049D00008944623ED5EA24F0E954823FF5EA34C3C
:1049E0000F97247D2D230C949D4DA24E119F6D7821
:1049F00036687F429A4C0D9512961D97A47C984D6F
:104A00002294EB5C1B9E139310239B1B1E93182771
:104A1000EF571C2014972856192118906956002327
:104A20000022002423910593002500260027FF2063
:104A30000021FF230692179410951A961597199046
:104A400021911F9216931C94099C002C00D127E100
:104A5000099B894D013BDBB209935B005B5B089EC0
:104A60000A93002EF0D0099F84480137FB011B18E0
:104A70001B880A990E9C5A1A944200DA92E10F9D03
:104A8000954200DD8BE1099EBF0101210225002234
:104A9000700103972CE07A4D841864006E46182745
:104AA0002C5BBD5FE41AAC4201DDA7B206976E46EF
:104AB0001427BD5FAC4201DAA4B205948218704F8E
:104AC0005200BB52089ACBB29A42BDD9039A8D1CB0
:104AD00053196C4C5B001B5B0A9E0E9F0A1C9C1BAF
:104AE000BC4200DD38E10F9E0131B44200DAD1E072
:104AF0000C9F002F07D0039ED41C3419614F640013
:104B0000E45BE3185B100D9C002C06D05E4E84180D
:104B1000A45D129F63437B431B130B9C002CBAD0F4
:104B20008618574F74003F5BBC46584FBC576646CB
:104B3000F608341B07946F4618240496E75F079E17
:104B4000F41ABC4201DDA7B206976E461427BE5F79
:104B5000B44201DAA6B20596119FBC425DDD84180D
:104B6000A4464B4C002766463755049F139EFC1AFB
:104B7000002E08D01B9F079C1E9E7B437443049FFE
:104B80001C1924113C1B231C7F3317DA3F4E82185B
:104B90008023B354239A219EA31AF61821961FAF9F
:104BA0000023FB5E9C4201DCA4B21F94039A354CA7
:104BB00055196D0000272B5B2F5383E783187E2C3C
:104BC00036DD324E7F27F754149FBC4203DB179E1D
:104BD000E31BF618179610AF0023FB5E9C4224DC03
:104BE000A3B2189EB44211DB1A9F099CA74200DAB7
:104BF0001A94169E099CA64200DD1694159E9642B4
:104C000000DA1592199FBA4200DA1992039A1D4CE4
:104C100055196D002A5B2B5354E71D9E8718B4422B
:104C20000EDA1B4C00263E559FE7A3B21093D8E73F
:104C3000164EF454002CC7DA239FBC42AFDCA9E720
:104C4000134E2097BC5D229E67B2B7428DD0209F45
:104C50000F4E0134BC5588E7AC0900204C00002001
:104C6000480D002070010020E4100020AE09002053
:104C70001C0300207809002094110020044000400B
:104C8000F80300200040004012790000640E00206C
:104C9000B30A0020099C01271C97002C00D0D7E6FE
:104CA0006D466F4618261420765BC05B414D179900
:104CB00010AC2F1C2E82688229602588219B3C1C09
:104CC0003D811A9E3C4F63601FAC2588BE601698DC
:104CD0001599199A374C0B9EF86039607A60658196
:104CE000002E24D0354B1B78002B03D0344B1B688F
:104CF000002B1CDD334C2378002B56D1324F3B7EEA
:104D0000002B14D0314D099F01262378002B08D0A9
:104D10002D487A01C17D5219032001230096FFF727
:104D2000ADF8294901370B7EFFB2BB42EDD8264CC6
:104D3000237D002B13D0227EE47D013A2449D2B298
:104D400002340020531C9B011B195B00013A5D5A81
:104D5000D2B25D5A5852F5E701261C9674E61D4DF5
:104D60001D4EAB7E3268134F53430821795E1B48BA
:104D70009B111B4ACD17DC0F0078994265411570D5
:104D800000280AD11C9C002C07D001231370154A5F
:104D900015491370154A0B70137025B0F0BD01252D
:104DA0001C9551E601241C944EE603201049FFF7A0
:104DB000BDF8A3E770010020E4100020DE01002010
:104DC00020010020EB010020AE090020640E00202D
:104DD00000400040480D002078090020E401002038
:104DE000140900203011002048110020C4010020C7
:104DF000F0590000F0B52F4B85B01C782E4D2F4E8A
:104E000010E0013CE4B22B573257591C02328901A1
:104E100089182B4A4900885A2A4A5B009A5A211C51
:104E2000FFF70AFB002CECD1274B1B78002B08D096
:104E3000204B0320197801230093244A0223FFF713
:104E40001DF8234B1E4918789A78841C0392DE784B
:104E5000002302940DE0A401E4196400655A0025C2
:104E60006552013202E0029C0022E718B41AF2D126
:104E70000133039D1A18AA42F5DB154B10495878E7
:104E8000DE78421C01235B42029200229F1C08E054
:104E9000029DAC18A401E4196400655A002565520E
:104EA00001321418B442F3DB039A01339342ECDB72
:104EB00005B0F0BD7C090020307500002A750000A7
:104EC0000040004094110020EB0100203C0D002028
:104ED0000A03002030B50C4B0C4CDB780C4910E079
:104EE000013BDBB25A1C0B4DD2015219451C03D1B8
:104EF00015885A00555204E015885A0112185200BC
:104F00001553002BECD130BD0A030020F80300201C
:104F10009411002002400040F0B58DB00A910B9230
:104F2000634B411C0CD1634A6349127E013A0392E0
:104F3000DA785E7854000023551C641894460EE01D
:104F4000DC7B5A79A218013A10E05C4AE918C901E1
:104F500089180A885F00E2530A8800220A80013B10
:104F60006746DA19B242F0DA039A00245601544D2A
:104F7000361800237600111C0893079306930593B7
:104F800003950996A44655E0441C04D14A4C5600AA
:104F90003419E45A04E04B4C099F3E195C01345B20
:104FA0004E1C464F0496F601F619378824B23EB2DD
:104FB000454FA61B5400E719F417FE5236196640F8
:104FC0000F1C0124A743B94209D1079CA4190794D7
:104FD000B54200DD351C069FB7420BDB0DE0089C97
:104FE000039FA4190894B74200DD0396059CB442C0
:104FF00002DB02E0069600E00596049EF4012F4EC7
:10500000A419471C0ED127882B4E04975700BE19B0
:10501000029610276E46BF5B029EF7522688002636
:10502000268005E02788274E099CA6195C01375386
:105030000139023B6145A7DA013013D1234C2378B3
:10504000002B03D001202249FEF770FF2378002BAC
:1050500008D0174B0120D97800230093164A022369
:10506000FEF70CFF079E089F0A9CF3192360059E1C
:10507000039F069CF31B651B9D4200DA1D1C0B9EC3
:10508000124C35602378002B03D00B201149FEF71A
:105090004DFF2378002B08D0064B0B20197E0123EF
:1050A0000093094A0223FEF7E9FE0DB0F0BDC046A9
:1050B0000A030020AE0900209411002002400040A5
:1050C000FFFF0000F803002054110020EB01002036
:1050D000C6590000CD590000F0B5A64B85B01D782B
:1050E000002D29D0A44BA54C1878A54B46B21968C1
:1050F0005B68B200CB181351821DD2B20025062383
:10510000013BDBB2F11A00D50C31890009596D1849
:10511000111C0B2A01D90C39C9B289006158013A16
:105120006D1AD2B2002BEBD10130934AC0B210708D
:1051300040B20B2800DD1370924B1B78002B00D07F
:1051400015E1914B14215B5E9D4202DA8F4B0122E7
:105150001A708B4B10229E5E12241B5FF61A854B31
:105160001878002816D18A4B8A4F1B688A4CBB805E
:1051700023783E80002B02D08849FEF7D7FE2378A3
:10518000002B07D001230221009300203A1C0B1CA6
:10519000FEF774FE7C4B9A7D964207DC804B1A78B2
:1051A00051B2022908DC01321A7005E0DB7D9E4213
:1051B00002DB7B4B00221A70714B764A59681B68E0
:1051C0001580CB185380744B96801B78002B06D02B
:1051D00001230093192003210223FEF74FFE6B4B9E
:1051E000644C1B78002B61D06B4D2B78002B03D0C7
:1051F00019206C49FEF79AFE694B1B78002B05D1EC
:105200002278002A52D0614A13704FE0032B4DD10F
:105210002B78002B03D000206349FEF787FE554B07
:10522000624A197800291AD101201870137ED67DA0
:105230005F4D604A0BE0013BDBB2F8184400A15A15
:10524000C900A15200214155002BF4D16346591EDB
:10525000C9B2002B23D0331C4F018C46F4E7137ED8
:10526000D67D544A0EE0013B514DDBB2FC18600084
:105270006457E4000294845A029D641B8452002BFC
:10528000F1D10B1C591EC9B2002B02D0331C4F01A7
:10529000F5E73A4A111C303108C28A42FCD13B4B37
:1052A00000221A70444B01221A7060E02278434BAE
:1052B000002A06D1404A012111701A6852181A605A
:1052C00055E000221A60394B3D481C7EDB7D394990
:1052D00002932D4B9B7C039311E0013BDBB2F21850
:1052E0001456039DAC4207D1314D54005757655AAF
:1052F000EF1B675200241454002BEED16446651E48
:10530000EDB2002C03D0029B6E01AC46F4E72D4BAE
:105310001B685D072BD5204B1B78002B22D0022069
:105320002949FEF703FE1DE0E97D62010B1C2148BF
:10533000029208E0013B029ADBB2D2185200125AE4
:105340005F00D208BA53002BF4D1134A1278002A16
:1053500005D0022000930F4A031CFEF78FFD013495
:10536000E4B201E0114D0B4E2B7EA342DCD805B018
:10537000F0BDC0461C030020F4100020BC1100202A
:105380007001002014090020480D00203C1100206D
:105390003411002054110020EB010020D2590000EC
:1053A00020090020D9590000E2590000AE09002070
:1053B000640E0020F803002048110020BC010020EA
:1053C000B30A002058000020EB590000F0B5254B2F
:1053D00087B01B78002B2BD1234A244B907C1B7861
:1053E0000490D27E224D52B292B20592214A1DE023
:1053F000013B214CDBB2E15C049FB94216D159005C
:10540000885A002807D06E5A6F4634B2A446142436
:10541000E75FBC4505DA59006E5AF600801B505212
:1054200001E0801B8852144F0021F954002BDFD17A
:105430000E4B124C19780F480B1C05E0013BDBB2F8
:105440005A00155AED081553002BF7D10C4A127863
:10545000002A05D002200093084A031CFEF70EFD27
:1054600007B0F0BD30110020480D00207C0900205D
:105470003C0D002014020020A40A0020541100203A
:10548000EB01002010B509495022094800F0E2F96B
:10549000084C0949201C422200F0DCF9074BA27B92
:1054A0001A60E37DE376237E237710BD4A74000003
:1054B000480D0020AE0900200874000050110020A3
:1054C00008B50449044B41430448C91800F060F989
:1054D000C0B208BD44FEFFFFFE24020040420F00A0
:1054E00010B5154C0023237103236371022323722B
:1054F000124B9878023803281DD800F0E7F80B0407
:105500000214C72000E0D720E070FFF7D9FF022384
:1055100020700EE0F420E070FFF7D2FF022320702D
:10552000A371012306E0F420E070FFF7C9FF012317
:105530002070A371E37110BDAA0A0020480D00205D
:10554000F0B5594B87B01A68584B082A01D101228F
:1055500000E000221A70564B564C0133DB7F002BC3
:1055600000D1E37123780125A279281CD90090404D
:1055700082B2CB1A5343504EDB10DBB23380227819
:10558000FA23A0799B0053434C4F291C814088B2D9
:10559000B9885843090100F0FBF8C1B27180237843
:1055A0002D22A07953432A1C824090B258436B4667
:1055B0001981090100F0ECF8C0B2B080237AB97902
:1055C000D800181AA940C0004919E0304843A27910
:1055D0006C460821615E9040490100F08BF8344A26
:1055E000F080117DD07D364B0818C0B21870177E40
:1055F0005F70567E0196967F019C6643F4B2201838
:10560000C0B298700290967E03960398D67F464368
:10561000F0B2C719FFB2DF70D67EB446614461189C
:10562000C9B21971167F8019029EC0B2741A3F1A4E
:10563000E6B2FFB258719E71DF71BC46577DEC1B1C
:105640000497271C7743FFB205979F73977D6446A5
:10565000ED1B65434743049C5F744C4318726F46CF
:105660001420C75DEDB2E4B2DD731C745D729972F3
:10567000DF721E735C73517F124B002903D06946A1
:105680000979197003E0019C039E74431C70931CFC
:105690000332029FD27FDB7FBA185BB201329A409D
:1056A000094B07B01A60F0BD50110020FA0200202B
:1056B000AE090020AA0A002004020020480D0020A4
:1056C0000A0300207C0900201809002002B471465A
:1056D00049084900095C49008E4402BC7047C04635
:1056E00003B47146490840004900095A49008E44F4
:1056F00003BC7047002934D00123002210B4884233
:105700002CD301242407A14204D2814202D20901F0
:105710001B01F8E7E400A14204D2814202D2490011
:105720005B00F8E7884201D3401A1A434C08A042B4
:1057300002D3001B5C0822438C08A04202D3001B4A
:105740009C082243CC08A04202D3001BDC08224361
:10575000002803D01B0901D00909E3E7101C10BC85
:105760007047002801D00020C04307B4024802A1BE
:105770004018029003BDC046D90000000029F0D0B7
:1057800003B5FFF7B9FF0EBC4243891A1847C0465C
:10579000002941D010B4041C4C40A446012300222F
:1057A000002900D54942002800D5404288422CD328
:1057B00001242407A14204D2814202D209011B0123
:1057C000F8E7E400A14204D2814202D249005B0022
:1057D000F8E7884201D3401A1A434C08A04202D38A
:1057E000001B5C0822438C08A04202D3001B9C08CB
:1057F0002243CC08A04202D3001BDC08224300282D
:1058000003D01B0901D00909E3E7101C6446002CF2
:1058100000D5404210BC7047002806D003DB0020B2
:10582000C043400801E08020000607B4024802A1FE
:105830004018029003BDC046190000000029EBD0BB
:1058400003B5FFF7A7FF0EBC4243891A1847C046AD
:105850007047C046F0B5051C0F2A2FD90B1C034317
:10586000051C9C072CD10C1C031C151C2668103D24
:105870001E6066685E60A6689E60E6681034DE6042
:1058800010330F2DF2D8131C103B1B0901331B01E1
:10589000C518C9180F231A40032A0FD90E1C2C1C37
:1058A000131C80CE043B80C4032BFAD8131F9B0823
:1058B00001339B0003242240C918ED18002A05D0AB
:1058C0000023CC5CEC5401339342FAD1F0BDC046C6
:1058D00050616C6D20496E69740027456E74657265
:1058E00027204E004E2D6C65737321002745786983
:1058F0007427204E004E20532F5000536C65657066
:1059000000532D7265736574004641535400496419
:105910006C6500416374697665005370656374005B
:10592000537461636B210052454756414C004465F6
:105930006C6179004F5343004E4F49534500546FFB
:10594000756368204F6E00546F756368204F46463C
:10595000004C545F50524F46494C494E47004669EF
:1059600078656400472D4166746572003D486F7626
:105970006F7200120E070D0A1204060C09120F05B1
:1059800011081200011002457272004B6579205215
:105990000052454620494E495400436D44656C749D
:1059A00061205265662F5265616C00526177004D2F
:1059B0004158204900434D5F44454C54415F4D419F
:1059C000585F4D494E0054786C65737300446966A6
:1059D0006600444946462F4E00426967204772617F
:1059E00064004E65672D456467650052656600007A
:1059F0002D490000FF00000100FF0100FF00000032
:105A000001000000A00D0020280200200C00000072
:105A1000541100200102FF0001040004FFFFFFFFFA
:105A2000FFFFFFFFFFFFFFFFFFFFFFFFFFFFFFFF86
:105A3000FFFFFFFFFFFFFFFFFFFFFFFFFFFFFFFF76
:105A4000FFFFFFFFFFFFFFFFFFFFFFFFFFFFFFFF66
:105A5000FFFFFFFFFFFFFFFFFFFFFFFFFFFFFFFF56
:105A6000FFFFFFFFFFFFFFFFFFFFFFFFFFFFFFFF46
:105A7000FFFFFFFFFFFFFFFFFFFFFFFFFFFFFFFF36
:105A8000FFFFFFFFFFFFFFFFFFFFFFFFFFFFFFFF26
:105A9000FFFFFFFFFFFFFFFFFFFFFFFFFFFFFFFF16
:105AA000FFFFFFFFFFFFFFFFFFFFFFFFFFFFFFFF06
:105AB000FFFFFFFFFFFFFFFFFFFFFFFFFFFFFFFFF6
:105AC000FFFFFFFFFFFFFFFFFFFFFFFFFFFFFFFFE6
:105AD000FFFFFFFFFFFFFFFFFFFFFFFFFFFFFFFFD6
