:100000000020002049020000090200000D0200004B
:10001000110200001502000019020000000000009B
:100020000000000000000000000000001D020000B1
:10003000210200000000000025020000290200004B
:10004000D500000021010000C1000000BD0100003A
:10005000D1010000410200004502000045020000FD
:100060004502000045020000450200004502000074
:100070004502000045020000450200004502000064
:100080004502000045020000450200004502000054
:100090004502000045020000450200004502000044
:1000A0004502000045020000450200004502000034
:1000B0004502000045020000450200004502000024
:1000C000034A002313708022D20513707047C04684
:1000D0000000002000B50F4A002353708023DB0589
:1000E00058690D490140596158690C4901405961ED
:1000F000917800290CD051685A690902120E090A38
:1001000012060A435A615969802252040A435A610D
:1001100000BDC04600000020FFFFFFFEFFFFFFEF15
:1001200010B5A022D205937A147A0F2214401C4AEB
:100130001278E10702D51B4A138006E008210C4221
:1001400007D0194B1A6852181A60184B1B68984749
:1001500018E0A1070DD5082A01D0012A01D1144BBE
:1001600002E0104A1380134B1B68984700220E4B85
:1001700007E0630706D50F4B1B6898470A4B1A68C0
:1001800008321A60064B01221C70A023DB051A728C
:10019000094910221A7200220A701A7210BDC04654
:1001A000340000202C00002030000020240000201B
:1001B000280000202000002010000020034A002317
:1001C00013728022D20553707047C0460000002091
:1001D0007047C0468023DB05196C802212020A4357
:1001E0001A64196C8022D2010A431A64196C044AF9
:1001F0000A401A64196C034A0A401A647047C046E0
:10020000FF7FFFFFFFBFFFFF00B5FEE700B5FEE782
:1002100000B5FEE700B5FEE700B5FEE700B5FEE776
:1002200000B5FEE700B5FEE700B5FEE700B5FEE766
:1002300000B5FEE700B5FEE700B5FEE700B5FEE756
:1002400000B5FEE700B5FEE708B58023DB05FB211E
:100250005A6859609968082199600022D968DA6063
:10026000196C8021C901196418690D4818610D487D
:100270000078904202D100F0C7F808BD186C8020C9
:1002800000021864186C196499688021490099600B
:10029000A021C905886804488860196C1A64FEE7C3
:1002A000104F0000FF7B00000000C842FFFFFFFF6F
:1002B000FFFFFFFFFFFFFFFFFFFFFFFFFFFFFFFF4E
:1002C000FFFFFFFFFFFFFFFFFFFFFFFFFFFFFFFF3E
:1002D000FFFFFFFFFFFFFFFFFFFFFFFFFFFFFFFF2E
:1002E000FFFFFFFFFFFFFFFFFFFFFFFFFFFFFFFF1E
:1002F000FFFFFFFFFFFFFFFFFFFFFFFFFFFFFFFF0E
:10030000FFFFFFFFFFFFFFFFFFFFFFFFFFFFFFFFFD
:10031000FFFFFFFFFFFFFFFFFFFFFFFFFFFFFFFFED
:10032000FFFFFFFFFFFFFFFFFFFFFFFFFFFFFFFFDD
:10033000FFFFFFFFFFFFFFFFFFFFFFFFFFFFFFFFCD
:10034000FFFFFFFFFFFFFFFFFFFFFFFFFFFFFFFFBD
:10035000FFFFFFFFFFFFFFFFFFFFFFFFFFFFFFFFAD
:10036000FFFFFFFFFFFFFFFFFFFFFFFFFFFFFFFF9D
:10037000FFFFFFFFFFFFFFFFFFFFFFFFFFFFFFFF8D
:10038000FFFFFFFFFFFFFFFFFFFFFFFFFFFFFFFF7D
:10039000FFFFFFFFFFFFFFFFFFFFFFFFFFFFFFFF6D
:1003A000FFFFFFFFFFFFFFFFFFFFFFFFFFFFFFFF5D
:1003B000FFFFFFFFFFFFFFFFFFFFFFFFFFFFFFFF4D
:1003C000FFFFFFFFFFFFFFFFFFFFFFFFFFFFFFFF3D
:1003D000FFFFFFFFFFFFFFFFFFFFFFFFFFFFFFFF2D
:1003E000FFFFFFFFFFFFFFFFFFFFFFFFFFFFFFFF1D
:1003F000FFFFFFFFFFFFFFFFFFFFFFFFFFFFFFFF0D
:100400004D314830434F3433F0B585B003F084FFAD
:1004100005F086FB002005F0F7FF002003F0B4FB99
:100420004D4B33331B785A4253411022D21A4B4B57
:1004300003921A704A4B1A68013A53425A41494B87
:100440001A70494B1C78002C22D1484A012514709F
:100450001D7000F02DFA464B281CDA789A705C70FB
:1004600005F0D2FF03F0E8FD01F010FB8023DB056F
:100470001A6C7F218A431A6400F0F4FD03F0B2F98C
:1004800001F004FB01F0A8FA3A4B02201B689847E0
:10049000394C2378002B03D1384B1B78002B11D01B
:1004A000237800F0A7FC354A0023237013702278CC
:1004B0002A4B002A04D069460C22515C197001E0D5
:1004C0000D221A70294B1B78002B26D02C4D2B782F
:1004D000002B22D0274C11202368984700F0E8F920
:1004E00003F040FD274B187801F0A6F800F0C6FD98
:1004F000254A01231370254A138003F045FA2B780F
:10050000002BFCD123681220984700F0D1F903F0AA
:1005100029FD1C4B187801F08FF800F093FF0F4C69
:10052000277878B2132800D96DE105F029FC750011
:100530006C0158016C016C016C016C016C016C0167
:100540006C016C016C016C0169006C013B003100B5
:1005500060006C016901C0461E0900204E030020A6
:10056000401000206A02002068020020690200207A
:100570001A0A002070020020670200206602002094
:1005800064020020B80C0020500300203803002033
:10059000A04B00221A7000F0A3FE9F4B1B78002B8B
:1005A00000D034E19D4C2378002B03D000209C49DF
:1005B00003F0C6FF2378002B06D001210020994AC2
:1005C0000B1C009003F064FF974B987803F090FEAB
:1005D000964DE87B03F0BCFA954C2060287C03F034
:1005E000B7FA11236060EB56EA7B5343A360894B53
:1005F00000221A708F4B1B788F4B187801F01CF873
:10060000844B8C4D00241C702B7800F02BFD04F0E3
:10061000B9FA00F027FD2C707E4B01241C7000F00D
:10062000ABFC864B1B689A0513D5854A854B042085
:100630001A60854B196801431960196802208143CB
:10064000196019680C431C60804B00211960804BB5
:100650001A60804C03202368984703F0AFFA2368A0
:100660000520984703F04EFA7B4C7C4D0120404218
:10067000211C2A1C04F00CFF684B1B78002B03D0B4
:100680000C20774903F05CFF764A236813802B68BF
:100690005380624B1B78002B06D00123022100936C
:1006A0000C200B1C03F0F4FE6A4C062023689847CC
:1006B00004F036FB04F082FC04F060FE04F0B0FFAE
:1006C00000F03EF923680720984701F053FA2368A9
:1006D0000820984703F022FA03F02AFA05F022F8DE
:1006E00005F0C0F9604B1B78002B18D101F0ACFA73
:1006F00001F0A2FD23680920984701F00BFE02F0EB
:100700002DFD23680A20984701F0FFFF02F07AF9D7
:1007100023680D20984702F00DFA02F0D3FB00F099
:1007200063F9514B1C78002C4BD102F037FC434B42
:100730001B68990523D5454B18683B4B1A791978E6
:100740003F4B181A531C984005F024FB334D404E84
:100750002B783060002B03D0201C444903F0F0FEBE
:100760002B78002B06D000200121321C042300909E
:1007700003F08EFE344B01211A688A431A603C4B09
:100780001A683C4B002A04D13B490968002900DD66
:100790001A70264A197832321278914201D3002217
:1007A0001A701B78002B08D12A4B0E201B68984723
:1007B000324B1B68984702F053FC2E4B1A780132DB
:1007C0001A708023DB059A6C01210A439A6400F0B9
:1007D00041FC2B4B0020185600F092FE17E0002041
:1007E00000F02AFF0D4B1B78002B03D00520254974
:1007F00003F0A6FE012000F01FFF1323237006E084
:1008000000F030FC03E0134B0F201B6898471E4B91
:100810001F700FE669020020600200206A020020BB
:10082000D95F00001C0A00201A0A00201E090020BF
:100830002C0300204E030020B80C002050000020A4
:10084000FFFFFF0014E000E010E000E018E000E02F
:100850007402002070020020E40F0020E80F002046
:10086000DD5F0000441000203F100020E35F000027
:100870001C010020C60000206C0100201C0000208C
:1008800033020020F05F00004C00002008B501F0AA
:10089000F9FE054B0E201B689847044B1B689847D0
:1008A00002F0DEFB08BDC046700200201C000020E4
:1008B00010B505F063F9054C00202368984705F052
:1008C0008DF923680120984710BDC04670020020B2
:1008D0007FB5174D174B5B1B0393174B1B78002BF2
:1008E00006D00020012103AA0423009003F0D0FDCC
:1008F000002619E0142C00DD142400230F4A02E026
:10090000E95CD1540133A342FADB0B4B1B78002B7B
:1009100006D0E1B20020094A0123009603F0B8FD99
:10092000039B2D191B1B0393039C002CE2D17FBD5D
:100930000C1E0020002000206A020020441000202D
:1009400013B51E4B1B78002B37D01D4C0023237092
:100950001C4B04201B6898471B4B1C4A59681B689A
:10096000118053801A4B1B78002B06D001230221E3
:10097000009318200B1C03F08BFD2378154C002BE3
:100980001AD0134B1B78002B03D00020124903F020
:10099000D7FD124A012313702268022A04DCD21800
:1009A00022600F4A137008E0FFF770FF0D4B0D2215
:1009B0001A700023236000E0236013BD4C03002065
:1009C000ED0F002070020020F001002044100020F4
:1009D0006A02002004020020705F00003F10002027
:1009E000700800204E030020F0B587B0002505AB4D
:1009F0001D806B46DD82A84BA84A0433DB7F1B3386
:100A00005B009B1804333A3205E00020195E002990
:100A100000D00125023B9342F7D1A14BA14A1B789C
:100A200003335B009B18063205E00026995F00291E
:100A300000D00125023B9342F7D19B4B002D02D001
:100A400000221A6005E01A6898498A4201D00132F2
:100A50001A60974B00241C70904B1B68A34200D077
:100A6000CBE0904A1268A24200D0C5E08A4B1A1C23
:100A700034321078A0423FD18E4A1278012A15D123
:100A80008D4B18708D4B1A708D4B18708D4B1B78D9
:100A9000A34202D08C4903F053FD854B01221A700A
:100AA00001F0F0FD834B00221A7086E1874A3C3347
:100AB0001B7812689A421FDB824B1B78002B02D0F6
:100AC000834903F03DFD834B73491A683D31013280
:100AD0001A6009788A420FDB00201860764B187084
:100AE000764B1870774B1B78834202D07A4903F01B
:100AF00027FD6F4B02221A70714B784A0021197042
:100B00001068724B1960131C88420EDD01381060AA
:100B10008D4200D011601A68012A00D037E100220E
:100B20001A60634B03221A7047E16D4B6D49043321
:100B3000DB8F8B4200D12AE16B490968994200DAC8
:100B400025E1554B5848191C3E3109780068884208
:100B500000DA1CE13F331B78136018E14F4FE319B3
:100B60003C201A5E002A44DD604AA2182C26915FC0
:100B700000293EDD6F46BF8A9188988803970EB2A0
:100B800007B2F61B02D4091A89B201E0411A89B2F0
:100B900003986E460918128B1B8CB1826946163178
:100BA00017B21EB20888BE1B02D4D31A9BB201E052
:100BB0009B1A9BB2434E1B180B803378002B03D03B
:100BC00000204B4903F0BCFC3378002B06D00020FA
:100BD000012105AA0223009003F05AFC3378002B70
:100BE00007D06A460020012116320223009003F04C
:100BF0004FFC0135023401E01C1C251C264B04333C
:100C0000DB7F9D42AADB354B00221A602B4B1A7802
:100C1000214B3433002A73D01878002800D0B6E076
:100C2000284B1B78002B02D0324903F089FC2E4C54
:100C3000314A23681380314B1B685380214B1B784A
:100C4000002B06D001230221009300200B1C03F08F
:100C50001FFC114920684A8F194B904214DA204A30
:100C6000264845321278006890420DDA1B78002B36
:100C700000D08CE0154B3C311A6809788A4200DBC1
:100C800085E001321A6082E001221A700F4A0023C7
:100C90001360104A13607AE01E0900206C010020E6
:100CA000D8080020DC00002048020020FFFFFF7F62
:100CB00033020020340200205C0200205D0200208C
:100CC000540200206A0200207A5F000058020020CF
:100CD000845F0000500200208C5F00004C02002066
:100CE000B80C0020FFFF0000E40F00201C010020D2
:100CF000955F00009A5F000044100020E80F00207C
:100D00001B78002B43D12E4F2E4A3B8F12689A42FC
:100D100009DB2D4B2D4A45331B7812689A4202DBC2
:100D20002B4B01221A702B4B1B78002B08D1244B24
:100D30001A8F294B9A422AD0254B1B78002B26D09C
:100D4000264B1B68012B0ADC1D4B05AADB8E128883
:100D50009A4204D86A46163212889A4214D91D4B18
:100D6000002018701E4B01221A70194B18701D4B71
:100D70001B78834202D01C4903F0E2FB1B4B01228B
:100D80001A7001F07FFC02E0194B01221A700C4B23
:100D900034331B78002B10D00E4B1A78002A0CD05D
:100DA000124A00215156032907D00D4909784842BB
:100DB00041410131117000221A7007B0F0BDC046E8
:100DC0001E090020E40F0020B80C0020E80F0020CE
:100DD000540200205C020020FFFF00006C01002094
:100DE0005D0200206A0200207A5F000033020020CA
:100DF0003402002010B5524B1B78002B08D0514B09
:100E00001B68984701F03EFC02F02AF902F0E6FD6B
:100E10004D4B02211A688A431A6019688022D20554
:100E2000906891601968082081431960196890687A
:100E3000916019680420814319601B689168936070
:100E40003F4B1878414B1B78002831D0002B03D042
:100E500000203F4903F074FB3E4B80211A68490093
:100E60000A431A601A68A023DB0598689A60364A1C
:100E7000394B10680340136010688023DB059C68C1
:100E800098601C688020400420431860C046C0461B
:100E9000C046C04662B631481C6820401860BFF3A7
:100EA0006F8F106801431160126899689A6011E0B1
:100EB000002B02D02A4903F043FB2A4802F004FF2A
:100EC000294B1B78002B05D1284B1B78002B01D117
:100ED00003F0B2F81C4B02211A680A431A60196821
:100EE0008022D2059068916021490131C87F082194
:100EF000002806D01868014319601968906891604D
:100F000005E01868884318601968906891601A684D
:100F100004210A431A601A688023DB05FA209968C5
:100F2000C0009A6002F0D0FE054B1B78002B06D063
:100F3000104C0C202368984723681020984710BD58
:100F40006702002064000020180000206A020020D0
:100F5000A05F000010000020FFFEFFFFFFFFFFFE6C
:100F6000A65F000040420F006402002063020020E0
:100F70001E0900207002002010B52C4B02241978A5
:100F80002B4B4AB21B78002B1CD02A4B1B78002B12
:100F900018D1294BA24203D02848807B002803D0D7
:100FA0000021196001240DE0254A186892689042DA
:100FB00001DA01301860002935D01B680024934203
:100FC00016DA30E063B293422DD0012B1DD0022BF4
:100FD00002D0002B0CD024E01A4B1B78002B03D03E
:100FE0000020194903F0ACFA002002F0E1FD18E0FE
:100FF000144B1B78002B03D00020144903F0A0FAF7
:101000000F4B586802F0D4FD0BE00E4B1B78002B01
:1010100003D000200E4903F093FA094B186802F040
:10102000C7FD024B1C7002F0B5FD10BD380000205A
:101030004C0300206202002058000020F001002034
:101040002C0300206A020020AE5F0000B35F0000A6
:10105000B85F000008B502F0EDFD08BD08B502F06C
:10106000DBFD08BD08B502F04DFD8023DB059A6C61
:1010700001210A439A64FFF7F1FF08BDF0B587B07C
:10108000FFF7F0FF8A4B002258781978431E02932D
:10109000884B203B5B18039322E06746C61B8A1CE3
:1010A000D218B601B618019F834A7600B25A7E0064
:1010B000824F403FBF195E00BA53039E7219121B44
:1010C0000026D65406E0450154016E18361B002355
:1010D00001969446013B5A180132DED16246013234
:1010E000029FBB1A0133EED1754B76491A78764CC4
:1010F00050000023411811E01019C55673480135FE
:101100001018C056AD0102302D186B486D002D5AD5
:1011100058000D526E4800251018C554013B981810
:101120000130E9D164240194FFF79CFF604D634FC7
:101130006B782C78013B5A01661E5E4814196400D6
:101140000596E4191018191C9C4631E0049F961C62
:10115000BF190097631902967E00574F0393023B15
:10116000F75B1B88DF1B009703D4534FF65B9B1B79
:1011700002E0514FF65BF31A029F049EF6194E4FA0
:1011800002967600BE5B039F023F3E80865CB342C0
:1011900000DA331C8354023D013A04E04B1C9B01EE
:1011A000059A00250493531CD0D10139403C2038C6
:1011B0004D1CF3D1424A434912783F4C013A50004A
:1011C0004018111C22E0404E058877563F4E0137EB
:1011D0007356BE010233F61802937600335BEB1AA6
:1011E00002D4335BEB1A01E0335B5B1B029DBF0152
:1011F0007F19314D7F00ED5B354F05807E183778C4
:10120000BB4200DA3B1C3370013902384B1CDAD187
:10121000019C6346013C0194002C00D084E72449E2
:1012200094460878590109184900059127E0049F60
:10123000039E3F8875180197059E204F1E4AF71997
:101240003F194E00BE5B019FF61B009FB6B2019690
:10125000BE0176196D46AD887600B75AB55208E0E2
:101260005D1C1C4FEA01861CD719002103960497C8
:10127000009501390A180132D9D1013B403C591C73
:10128000EED162461448510000230F4C08180BE0C1
:10129000A556124EED01AD190A4E2D888E19F65A3B
:1012A000013A751BC552023B571CF1D107B0F0BD86
:1012B0003A030020230A002000400040520300208F
:1012C000D808002088020020307500002A75000030
:1012D000140A002002400040AC0C00208240004074
:1012E000F0B585B002F08EFA02F0A4FB0028FBD125
:1012F0004B4B1B78022B09D04A4B4B4940331A7891
:1013000053425418E05401339342FADD454E474F9F
:10131000331C40331C7864420CE0FA7880231219A5
:10132000D2B2DB051A71FFF79DFE2878201804F071
:1013300083F80134351C40352B789C42EDDD0026C6
:1013400025E02C782F1C6442403F1AE0374BDA78B6
:1013500080231219DB05D2B21A71FFF783FE2D78B4
:1013600002A9651903AA281C04F092F82E49029BD1
:101370004A5DFF2B00DDFF239A4200DA1A1C4A5512
:1013800001343D1C40352B789C42DFDD0136284A74
:10139000244D137840359E42D3DB02F023FA2C789B
:1013A0000122121B204B002122480BE05D781E78A1
:1013B0006D0075199E78AD19A84201DBA8B2111C09
:1013C000013201339442F1DC184B1B4CDA7851188E
:1013D000C9B29970124B1878002805D12378002BD8
:1013E00002D0164903F0ACF82378002B0BD00D4B3C
:1013F0000020403319780C4A49000131C9B2012359
:10140000009003F045F80C4B1B78002B06D001210F
:1014100000200B4A0B1C009003F03AF805B0F0BD19
:1014200060020020B80C0020130200201A0A0020DD
:10143000F70C0020FFFF00006A020020BF5F0000E1
:101440001C0A002013B5244B244C1B68002B0ED023
:101450002378002B03D00020214903F071F8FFF717
:1014600037FA2378002B02D102F08EFAFEE72378B8
:10147000002B09D01B4C2368DA0005D5FFF728FAAA
:101480002268194B13402360144C2378002B22D080
:10149000144B1B685A011ED51449002003F050F864
:1014A000134B144A1988118059885180998891806A
:1014B000DB88D380104B1B7813812378002B05D059
:1014C000002005210223009002F0E2FF054B0B4AA9
:1014D00019680A401A6013BD0C1E00206A02002021
:1014E000C55F000050000020FFFFFFEFCC5F000051
:1014F00078020020441000201A0A0020FFFFFFFBA2
:1015000008B5022804D003283CD001282AD114E0D1
:10151000FFF7BCF9244B254940331A78244B254862
:101520001A70502204F0E6FC234B0C201B689847ED
:10153000FFF7BEF902F016FD35E0FFF7A7F91A4BE9
:101540001E4940331A781A4B1A481A70502204F078
:10155000D1FC194B0B201B689847FFF7A9F902F043
:1015600001FD20E0164B1A78002A05D0154A1168B3
:101570000131116000221A70134B1A68132A05DD1D
:1015800000221A600A4B10221A700CE00D4B1A68E8
:101590003B2A08DD00221A600C4B01201B6898478B
:1015A0000B4B01221A7008BD1E0900204A7400006E
:1015B0004E030020B80C0020700200209A74000036
:1015C00044020020400200203C020020680000206D
:1015D0006602002010B50C4B01229979002300E02F
:1015E000231C5C1C101CE4B298408142F8DA074AC4
:1015F000072113718022D2050B401902106C044B95
:1016000003400B43136410BDB80C002058000020A9
:10161000FFF8FFFF064B0722D9798023DB05186C02
:101620001140044A090202400A431A647047C04646
:10163000B80C0020FFF8FFFFF0B58BB00390FFF768
:10164000C9FFC74BD87899784401002364188C46A9
:101650000FE0C4496E008E1900275100775202E056
:101660005D010022651B013A664691190131F0D1F6
:1016700001338342F4D1039F002F04D0BA4B0024DE
:101680005B7B049403E0B94B02259B7804955BB225
:1016900009935B420793B24CB4E068461021E67AA6
:1016A00008560596002702900BE0301C00212A1CEA
:1016B000029B02F0F9FB301C01212A1C029B02F064
:1016C000F3FBA74B0599DA7A9B7A7E18D21801377B
:1016D000A34B9642E9DB039E002E00D10E3D6846E7
:1016E00010215B7B08560593002702900BE0301C0D
:1016F00000212A1C029B02F0D7FB301C01212A1C6E
:10170000029B02F0D1FB964B05995A7B1B7B7E18FE
:10171000D31801379E42EADBFFF7A4FC944B1B78F9
:10172000002B06D00123181C191C09AA009302F0F3
:10173000AFFE00258A4E8E4F0DE03B78002B09D07E
:101740008C480023EA011218B1780120009302238B
:1017500002F09EFE0135F1788D42EEDBB3788648CB
:10176000013B0293099B4A1EDBB20593834B520156
:10177000C01AD21806903FE0029B40011818804D15
:10178000400040198C4632E06646B501991C691844
:101790007C4F4900CE5B0188B5B2A94213DC4D1BDA
:1017A000291C803101DA80256D42744F7249C91BB2
:1017B00089187F2D00DD7F25CD5406806D461426C7
:1017C000755DD55411E0039E002E0ED06E4EB142D1
:1017D00008D0069FBE18F65689198D4202DAD15CF0
:1017E0000131D154012149420180013B0238591C89
:1017F000CAD161460139203A481E0029BCD1099B53
:10180000013B0993099D079EB54200DB45E7039F15
:10181000002F33D0A378E278013B03936078524BDA
:101820000490197C013ADF7A1E7B2620534B5043EB
:10183000CF198E1951012478C918544BA446FFB210
:10184000F6B2C01816E0CC5C049D0294C45CAA42B7
:1018500001DA634504DB029D2C193419CC5403E0F2
:10186000029D2C193C19CC54013B5C1CEBD1013A74
:1018700020392638551C45D0039BF6E7607CE37978
:101880003E4DC3180493394BA27B02269B5F07266B
:101890002779F61A7600D719F6B2039955199446A6
:1018A0000CE0E25CB218E254013302E06401002370
:1018B0002C1962469A18BA42F3DB0131049B0C18CA
:1018C0009C42F3DB264B2D4D1A7CD87B5E799F79A9
:1018D0008619D71900215519029210E0E25C94464E
:1018E0000E22524294446246E254013302E0640103
:1018F00000232C19029AD218BA42EFDB01310C18DE
:10190000B442F4DB1A4B1B78002B03D0052020498E
:1019100002F016FE194C0025114E154F0BE03B78D6
:10192000002B06D0B17801230520221C009302F081
:10193000AFFD01352034F3789D42F0DB002101201A
:101940000A1C4042022302F0AFFA0120404201216A
:101950000022022302F0A8FAB478013C27E0C04636
:101960003A03002012030020B80C00207802002067
:101970006A02002084400040120D0020230A00204B
:101980005203002000400040FFFF000036750000B9
:10199000D35F00000021201C0A1C012302F084FAFE
:1019A0000121201C00220B1C02F07EFA013C631C6A
:1019B000F0D1FFF72FFE0BB0F0BD08B504F00EF923
:1019C000044B01201B689847012004F01DFD02F024
:1019D00037F808BD70020020F7B5294E294C731D59
:1019E000DB7FF17D5A1E504242418A1A00922260EA
:1019F000B21DD57F377E6A1E50424241BA1A01920B
:101A00006260012B02D10023238105E02622B05E13
:101A1000490004F00DFA2081012D02D100236381D9
:101A200005E02823F05E790004F002FA6081144F8B
:101A3000019B2822BE5E59007000801904F0F8F95D
:101A40004043104C43008000E360C318236126220A
:101A5000BD5E009B68005900401904F0E9F92C377D
:101A60006061A0613B78002B02D1E661256201E054
:101A7000E5612662044B012252425A60F7BDC0461E
:101A80001E09002080080020C8000020F0B5244B6B
:101A900087B01E7EDB7D721CD91C02330393059236
:101AA0000023204A0491181C059CE51AEF010197B8
:101AB000BC5AB852049CAD0129194F00BC5A1A4CAB
:101AC000B85200272F550F550199184F0133CF19E0
:101AD00002973988388003996F1879000191895AE3
:101AE0000199885212496D18002129703955F71A49
:101AF0000C4D0137D8DA00220136039B111CB601C8
:101B000058002F5A2A52F0184700EC5BEA53064F50
:101B1000F954013B3954012BF2D107B0F0BDC04656
:101B20001E0900200040004000200040024000400C
:101B300001200040F7B50D4B197EDE7D481C0136B3
:101B400000230190019C321CE71ABF01951CAC4692
:101B5000BC44074C00256046013A0555501CF5DA97
:101B60000133CA1A0132EDDAF7BDC0461E09002062
:101B70000020004000B50F4B08229B5E0E4A111C4E
:101B800035310978127F4B4352B29B11934200DAF0
:101B9000131C0A4A13608022D2051B05906919099B
:101BA000074B03400B439361034B1A8C054B1A60A0
:101BB00000BDC046F0010020B80C0020A80C002099
:101BC000FFFF00F09402002070B501320233920151
:101BD000D218194BD35C5BB21F2B2CD00E2B00DD1F
:101BE0000E3B984227D0002B25DD051C1C1C134AF8
:101BF0002B352B346D006400145F525FA24200DD70
:101C0000221C0F4C647F62439211914213DD834288
:101C100002DD021C181C131C0A4A801801780029D6
:101C200004D04CB29C4203DDDBB21355037002E0DA
:101C30009C4200DAD15470BD002000409802002080
:101C4000B80C0020A80F0020F0B59C499C4A9D4B81
:101C5000086811681C1C1E1C91B02B3434303431C0
:101C60001C3E002200251A80257002600A609A83BB
:101C7000023B013C04380439B342F4D1924B0020BA
:101C8000191C0F391870013B00228B42FAD18F4B7F
:101C90008F4D197EAD688F4E8F4F01390495B281FB
:101CA0003A608D4203DA8A48013504958560884997
:101CB000C9680391002903DD854A01390391D16088
:101CC000834DDA7D2B68013A934201DA01332B60B0
:101CD0007F4E7368002B01DD013B7360049F039806
:101CE000874200DAA1E27A4900257C4C48C9AC461B
:101CF0001D1CB5420DDB781C2B1C80019A1C821820
:101D0000115D013B49B20E2901DD61461155B34217
:101D1000F4DA039A013F9742EBDA714A2B1C1268FE
:101D2000674D664F08926A486949694A2D683F685D
:101D30004068C968126809950A97664D664F069013
:101D40000E910F92AD893F68644C07950B97B34293
:101D500000DAA8E0049A0499013202319201890163
:101D600003920C9135E00B9D8D4200DA0B91099D99
:101D7000049F860001965743AE19151C5D430597D5
:101D800002953768059DBC462F1C67443760019D4E
:101D90000A9F7E191B256D183768AC46029D2B31B2
:101DA0007F19654637606F004B4D4900EE19B788C3
:101DB0002818D7197030B780067901360671685E29
:101DC000824202DD6F4638884853069F013B9F429E
:101DD00069DC03989E1C8119424D4A00095D525BE3
:101DE0006F4608983A8092B249B2824203DB079864
:101DF000013080B20790481E0D28B4D9022AE4DDD4
:101E00000029E2D1049D591CAD018C46291C019585
:101E10006144095D023A49B2481E009200220D2831
:101E20002CD8039D82000292009FAA19049D6F4343
:101E300005971F271755099D029FEA19009D1768EE
:101E40005D430D95059D7F191760029D0A9A5719EC
:101E50000D1C1B353A6805950D9D5219059D3A607C
:101E60001D4F6A001C4DBA1897882818009D7030C5
:101E70007F19978007790A1C01370771039F391C66
:101E800061440F5D79B2481E0D285AD8002A2BD024
:101E90008A4256D003980E37FFB286193755069FEF
:101EA000013B9F4295DD04980E99013804908142D0
:101EB00000DDB2E10F9B069E49E7C04640000020CE
:101EC00044000020EE020020B60F00201E09002072
:101ED000940F0020F0010020980200200020004014
:101EE000A80C002000400040039D82000292009F49
:101EF000AA19049D6F4305971F271755099D029F37
:101F0000EA19009D17685D430D95059D7F191760BF
:101F1000029D0A9F7A190D1C1B35176805950D9DAA
:101F20007F19059D1760C24A6F00C14DD719BA8845
:101F30002818009D70305219BA8007790A1C791C44
:101F400001710C9F391C61440F5D79B2481E0D2848
:101F500003D8002A49D08A429CD1019FB9190F5D4C
:101F600079B2481E0D2803D8002A6CD08A4291D13C
:101F70000C9FB9190F5D79B2481E0D2804D8002AAC
:101F800000D18EE08A4285D1019FD91C7818075D67
:101F900078B2451EAC460D2D05D8002A00D1AEE022
:101FA000824200D076E7039D6818075D78B2451E2F
:101FB000AC460D2D05D8002A00D1D3E0824200D0D6
:101FC00068E70C9D6918085D41B24F1E0D2F00D9BE
:101FD000FBE6002A00D1F8E08A4200D1F5E6039F33
:101FE0000E30C0B2BE193055EFE6039D8200944614
:101FF000009FAA19049D6F4302971F271755099D3B
:102000002A1C009D62445D4317680595029D7F1957
:1020100017600A9F1B253A1C62446D181768AC466E
:10202000059D7F1917606546814A6F00804DD7195D
:10203000BA882818009D70305219BA8007790A1C96
:102040000137077189E7039D82009446009FAA1912
:10205000049D6F4302971F271755099D2A1C009D59
:1020600062445D4317680595029D7F1917600A9FBA
:102070001B253A1C62446D181768AC46059D7F19F4
:10208000176065466A4A6F00694DD719BA882818E3
:10209000009D70305219BA8007790A1C791C0171B1
:1020A00066E7039D82009446009FAA19049D6F4332
:1020B00002971F271755099D2A1C009D62445D4306
:1020C00017680595029D7F1917600A9F1B253A1C0A
:1020D00062446D181768AC46059D7F191760654608
:1020E000534A6F00524DD719BA882818009D703096
:1020F0005219BA8007790A1C791C017144E7AA00B9
:10210000039D0192009FAA19049D6F4302971F2708
:102110001755019D099A5719009D3A685D43059529
:10212000029D52193A60019D0A9A5719051C1B35E8
:102130003A680295059D5219029D3A603C4F6A002B
:10214000BA18958867440195019D7037AC46009D8B
:10215000AC44654695803A799446021C604601304D
:10216000387120E7AA00039D0192009FAA19049DDF
:102170006F4302971F271755019D099A5719009D14
:102180003A685D430595029D52193A60019D0A9A8D
:102190005719051C1B353A680295059D5219029D79
:1021A0003A60234F6A00BA18958867440195019DEB
:1021B0007037AC46009DAC44654695803A799446AC
:1021C000021C604601303871FBE6B8008446009D71
:1021D0000498039A454396191F2201953255099D8B
:1021E000009E2A1C62441068019D5E4340191060E5
:1021F0000A981B31021C6244106849008019106063
:102200000B4A0B4D51188A88009EEF1992197037AE
:102210008A803A7901323A71D7E56A461C239B5A83
:102220000B9D044A024E9381356011B0F0BDC0464B
:1022300098020020F0010020F0B5334B87B09A6877
:10224000039259E0304B039A1B68013201939301CA
:102250000492059348E0019B059A0233D3182B4A58
:102260009F5C7FB23A1C0F3A0F2A3AD8284A039C47
:10227000019D5B009B5A0E3F013C013D191C0293DE
:10228000381C221C2B1CFFF79FFC381C0299221CB7
:10229000019BFFF799FC019E381C01360299221C14
:1022A000331CFFF791FC381C0299039A2B1CFFF793
:1022B0008BFC381C0299039A331CFFF785FC381CF1
:1022C0000299049A2B1CFFF77FFC381C0299049A90
:1022D000019BFFF779FC381C0299049A331CFFF725
:1022E00073FC019B013B0193074A5368019A9A4290
:1022F000B1DA039B013B0393034AD368039A9A42E2
:10230000A0DA07B0F0BDC046940F002000200040C6
:1023100000400040F0B5CB4B8DB01B68CA4A059316
:10232000CA4B10681B680490C94807930D210E23FF
:10233000C356002B3FD000E063B2C54DEC5C002CCF
:10234000FAD18373002B36D05E1E059CB700089629
:102350008D00E6190697645937680394BC46271C1C
:1023600067443760069C079F2B333E19079C3768EC
:1023700065595B007F194D00AD1837602E1C58362B
:102380009F5E3688BC4637B2BC4500DA9E52089B39
:10239000AD8F1C335B00D3189E887619089D9E80F4
:1023A000541953187034743325791B78049EEB1834
:1023B000013E2371049601380139B8D2A24B049F23
:1023C0001F60A44B1B68D80608D49E4B00201D68D4
:1023D0009E4B01221C689C49031C31E09E4B1B78DC
:1023E000002B03D004209D4902F0AAF800249C4D44
:1023F00021E06968671C2B688C469A4ABF01944E9D
:1024000008E0991C7918885C40B2305C002800D044
:102410008854013B6345F4DA8F4B1B78002B09D0BD
:10242000914BA201D218914B0420D97D0123009336
:1024300002F02EF801348D4E337E9C42D9DBC4E786
:10244000834FBE56002E1FD12F589E00AF512758E4
:10245000A75156007618371C56373F880596BC465C
:102460001F1C2C377F003E1C67467752059E778FD6
:102470001E1C1C3676008E19B780561873363778B6
:10248000CE18703637710133013204300F2AD7D19C
:10249000774B1B68002B10DD764B774A99891180AA
:1024A0001B8953806C4B1B78002B06D00123022123
:1024B000009317200B1C01F0EBFF634C6F4927685A
:1024C0006A4A07974D894F680895138D8D691EB22A
:1024D0000496AEB29B1B099705969BB231321278D7
:1024E0000A93584B06921E68002728E001CE0499F3
:1024F000099B48433C22A15E594303F099FC08998B
:102500005F4A0818137880B2A080002B15D100B262
:10251000A84207DA069B401B58430599801108180A
:10252000A0800AE0049A101AA84206DA069B401B13
:1025300058430A998011081AA08001370234079A7B
:102540009742D3DB404C4D492568484A06950E8991
:102550000D680796D38C08954D691FB2AEB2111C59
:10256000049705962F3109789B1B9BB20991303255
:1025700012780B93354B0A921E682034002728E00E
:1025800001CE0499089B48431C22A15E594303F0E5
:102590004FFC07993A4A0818137880B22080002B24
:1025A00015D100B2A84207DA099B401B5843059990
:1025B0008011081820800AE0049A101AA84206DA4E
:1025C0000A9B401B58430B998011081A2080013741
:1025D0000234069A9742D3DB244A1B4B111C2A3142
:1025E0000F78111C2B312825565F0D782621505E5F
:1025F0002C32049012781C6805920022A44606959D
:10260000141C1BE0104D53193C20195E002913D0F7
:102610000421585E2025595F002F00D0301A069DF6
:10262000002D01D0049D691A059D002D02D09980CE
:10263000188401E098801984013402326445E1DB9A
:102640000DB0F0BD440000209802002040000020A2
:10265000A80F0020500000206A020020F65F000052
:10266000940F002000200040422000401E0900205E
:102670006C010020F00100204410002080080020A0
:102680005F020020F7B5194B194D0433DE7F00219E
:102690007700EF19081C0A1C01970EE0019F2C1906
:1026A000743422707C18134FA287BC46B444228431
:1026B000A280674658343B5422800138841902397D
:1026C0000023671CEAD10C490C4A09785460480081
:1026D00013602B608218181C02E05C001419208122
:1026E000013B5C180134F8D1F7BDC0461E0900203B
:1026F0006C01002060010020D8080020DC000020D0
:1027000049434043401870477047F0B5B34B8BB016
:102710000433DD7F00231C1CB14A181C06E059005D
:1027200051188C87D1187431087001330021AB42E5
:10273000F5DB11600B1CAB4AAB4CAC49FF20E054FD
:10274000013302C20E2BFAD1A44B00240433DB7FE9
:102750000093A74B1B690393A64B1B6802933AE0B7
:10276000A54D63005B1901932C269B5F002B31D094
:10277000A24DA300EF58039E3F010125BF196D42F2
:10278000002617E09B4873001B183C215A5E002A64
:102790000FD0019998888A88198C801A019A00B202
:1027A000138BC91A09B2FFF7ABFFB84201DA351C27
:1027B000071C0136029B9E42E4DB6E1C0AD08A4B4A
:1027C00088495857AA00013002D08858B84201DD24
:1027D0008F505C550134009DAC42C1DB854D804972
:1027E0002E680C680020B4460194021C2AE07E4E3C
:1027F000B3565C1C24D04419A7885E008E19B7809C
:102800001E1C278C1036760077521E1C1C36A78F94
:1028100076008E19B780561974363778CE18703610
:10282000377158341E1C24882C3676007452019E51
:102830009400013601966B4E9B0034596F4E9C51AB
:10284000013202306245D2DB6A4B654E1B68019C47
:1028500008936B4B34601B68002509935F4B2F1C5A
:102860000433DB7F03950693AFE05F4CE557681CAC
:1028700000D0A6E05F4C03990C19A28F0292002AA7
:102880001BD19EE00098564943005B183C201A5E1D
:10289000002A0ED09A88A088198C801A228C00B247
:1028A000511A09B2FFF72CFF0499884201DA009D02
:1028B0000490009A0132009203E0099B00200493E7
:1028C00000900099069A9142DCDB6B1C74D02B1CA3
:1028D000082168461C33085E5B00F31800900793DC
:1028E00004229A5E0421635E029280186A000490BA
:1028F000B2180098059243430421505E029A04994D
:102900005043181803F094FA059B009998802B1CEB
:1029100010335B000593059A2020235E905F4B43A4
:102920000299583448430499181803F081FA059A1B
:102930006B4690531020C05A2A1C079B2C3298805B
:1029400052002188B35A08B21CB2844200DA0B1C30
:10295000B352284B7519DB19703574332A791B78FB
:10296000D3182B712DE0590088182C25405F0028C2
:1029700020D11B4AA08851188880191C208C103146
:1029800049008852191C1C3168460825285A4900FC
:102990005118888017495834C91974310878D118EA
:1029A000703108712188019C2C335B0001349952ED
:1029B000019406E0013301E00F4A0023069DAB427B
:1029C000D1DB039C013702340394089DAF4200DA47
:1029D0004BE7019E024B0BB01E60F0BD1E090020AC
:1029E0006C010020A80F00201C030020FFFFFF7FC8
:1029F0008008002098020020DC080020F40000205D
:102A000094020020F7B5414A00231360404A414C2C
:102A10000432D07F1D1C47003F19421E191CBC46C2
:102A20000EE0A61874363678B14200DA311C6746DB
:102A3000EE193A27F65FB34200DA331C013A023D41
:102A4000261C571CEDD1314A002413605160231C11
:102A500004E0F218743212780133A4188342F8DBD0
:102A60003368002B0FDD294B2B4A5B6814805380A1
:102A70002A4B1B78002B06D00123022100931D2036
:102A80000B1C01F005FD234B1B68002B2ADD244A9B
:102A90000823D15E234B0C25525F1D1C3D352D783C
:102AA000181C6A433C3000789211821891420ADC6B
:102AB0001A4B1B78002B03D000201B4901F040FD6E
:102AC000FFF7E0FD0EE0D98E104A8C4203DB198F30
:102AD0005068884203DA5B8F52689A4202DB134BDC
:102AE00001221A700B4B1A68104B002A00D11A7081
:102AF0001B78002B09D0094B1B78002B03D000203A
:102B00000B4901F01DFDFFF7BDFDF7BD8002002060
:102B10001E0900206C010020441000206A020020E1
:102B2000F0010020B80C0020FE5F0000F000002043
:102B300007600000F0B5D64BD64D0433D87FD64A97
:102B40002B1C4E331B785768D44E5F43031C1B333A
:102B5000411ED34A5B009B1989009DB00433341891
:102B600089181330CF4A0193400080182823EA5E69
:102B7000BF1103922623EE5E7334043000220496C4
:102B8000BC46019B18E01D88002D11D00026875FF0
:102B90002DB2002F06DC049EB54206DB2578654584
:102BA00006DA02E0039EB54202DA1A809A830A60CE
:102BB000023B0439013C0238BB4DAB42E3D1B4497E
:102BC000BA4AB64F00233B6093730A1DD27F0D9221
:102BD000B04A108D440006B2A4B2101C159416968B
:102BE0003230007817902E25545F0B943020165EFB
:102BF0000A1C07962D3212782E3152B20892AC4A36
:102C0000089CD069089D041B0138401B189419903A
:102C10000978126A49B2561A013A521A1A9609915B
:102C20001B920393A34D0C931E1C04E10C983C18BB
:102C3000A28F002A00D1F7E0169912B2521A159B02
:102C400052109A182B78179892B259B2A2878142E3
:102C50001BDA2179013398482B70F300C154617954
:102C6000C3185970611CC97F9970A11CC97F1A7162
:102C7000120A5A71D970BB1974331A786B1E1A7004
:102C800001235B42A3870123D0E00423E15E13B25A
:102C900004912021605E0A930290B819031C7433DA
:102CA0001B7814900E93844BF200995C9A18537819
:102CB00090781B020B43D1781B04090201430904DD
:102CC00009140591117952791B1412020A43120456
:102CD00012140F926A1E127804991092049A591ACB
:102CE0008C469A4201DDD21A944602980599884290
:102CF00003DD401A6044019004E00599029A881AA5
:102D0000604401900A9A0F98121AD0171118414086
:102D1000109A11910E99891ACA1788185040019972
:102D200013900B984018421006900B981292434350
:102D3000081C0499484318180699801803F078F87D
:102D4000059A029904900B9B019853434843129AA9
:102D500018180699801803F06BF8079B0F9A0190DA
:102D60001198191853430A9A504318184B10C01859
:102D70008446079B1398109A1B1807980693504394
:102D80000E9B139A5A438018069A5310C31868462C
:102D90000A93038A4848F200835482181B0A02925D
:102DA00053706A469388029A604693701B0AD370E8
:102DB00003F03EF8029B80B2059018710599029AC3
:102DC0000B0A537106990A9803F032F86B1EC0B2D1
:102DD0001870039B0499089A01330393914205DD0F
:102DE000189B994204DB1999049101E0089A049216
:102DF000019B09998B4205DD1A9A934204DB1B9BC8
:102E0000019301E00999019110236A469A5A6B4691
:102E10009B88A280238469461422149B515A7433E0
:102E2000A1871870012301E0A2872A700C9C01364B
:102E300002340C9408350D9CA64200DAF6E61F49D0
:102E40001A4A039D086893733D601D4A002385421A
:102E50001ADA14680F4B013414603E255D570023C5
:102E6000AC4211DA38601A1C0C1C08E018194588AD
:102E7000D9194D80C58A408DCD83488701320D9E7A
:102E80000233B242F2DB00E013601DB0F0BDC04679
:102E90001E090020B80C0020800200206C010020D8
:102EA000F4000020DC080020A6010020F001002032
:102EB00080080020F50F0020EE0F00201C010020EC
:102EC0005C010020F0B5314A314B1578314A0027BA
:102ED000111C1F602B31097889B004914800111C26
:102EE0000690323109786E1E07913020115E2A4A11
:102EF0000591F40059680335A4186D00029104345B
:102F0000ED18039739E02B88002B2ED0049A1BB2C2
:102F10009B1A06985B10221FC318116807989BB272
:102F20002B801BB2814205DA013111600021236040
:102F300029801FE02268013794469A1AD017111889
:102F4000059A414060460191511842439446019AC6
:102F500053436246D0184B10C01802F069FF039B20
:102F600020602880834203DB04E0221F136001E01D
:102F700002960390013E083C023D701CC3D1044BF5
:102F8000029909B01F605960F0BDC046D808002002
:102F9000DC000020B80C0020A4080020F7B52B4B63
:102FA0002B480433D97F2B4C0B1C0A1C1B335B00B2
:102FB0000B32294D1B1852004800141904335219C2
:102FC000404249003AE01426A55F002D25D0002795
:102FD000DD5F002D21D01D184D19383D16182D88A4
:102FE0008E192718143ECF190196143F2EB2B446FD
:102FF0000026BF5F6646F71B7F107D19019F3D804D
:103000001D1C1C3D2D882EB201960026A75F019E37
:10301000F61B7610751915800BE01D184D19383DFB
:103020002E8815184D19143D2E801D1C1C3D2D8811
:1030300015801D88023C9582023B023A074FBB4235
:10304000C1D1034B1A68044B1A60F7BD1E0900205A
:103050006C0100201C010020DC080020A6010020DB
:10306000F0B5364B87B00433D87F354B354C1A1C3E
:1030700033321278343304921B78021C0593031CFC
:10308000314913330F325B0052001B1952184400B0
:103090002E49451E6442400004336918029403908F
:1030A0003BE008780190019C0598002C00D1049821
:1030B000029D039F5E19282455197D196442F61953
:1030C000A75F1C3D2D88BC4664462FB2E71BFC174A
:1030D0003F19674087420CDA14277F42FC5EA44602
:1030E0000024175F6446E71BFC173F1967408742BF
:1030F0000EDB283E35801588181C14380580002505
:10310000585F002804DD019F002F01D101200870C5
:10311000908B01391880023A023B0D488342C0D19E
:10312000094B0C491A68074B07B01A600A4A0B1C76
:10313000B0CAB0C303CA03C3F0BDC0461E09002015
:10314000B80C00201C0100206C0100206001002050
:1031500046010020C8000020DC000020F7B51E4911
:10316000012252424A601D4A002310781C4A0B601B
:10317000141C2A342B3224781778C21C52004000C9
:1031800052180190A446191C181C1EE0019C154EF3
:103190000D19AC19023C248826B2F643F6172640D6
:1031A000B4B21680002C0ED00F4E24B2AD190626F4
:1031B000AD5F002D02DC644504DA01E0BC4201DAB7
:1031C000108000E001330239023A084CA242DDD1FE
:1031D000014A1360F7BDC046DC000020D80800207B
:1031E000B80C0020AC0C0020C8000020E200002039
:1031F000EFF30880704700BA704740BA7047C0BA12
:1032000070471F234209184001238340181C024BBA
:103210009200D0507047C04600E100E01F234209F1
:10322000184001238340181C2032024B9200D050DA
:103230007047C04600E100E01F2342091840012307
:103240008340181C6032024B9200D0507047C04639
:1032500000E100E070B5002816DAC0B20F23034089
:10326000083B134A9B089B009B1803221040904088
:10327000FF225D68141C84408901A5430A408240F6
:10328000281C1043586011E003248208094B204099
:10329000C032A0409200FF24D558261C86408901E8
:1032A000B5430C408440281C2043D05070BDC0461C
:1032B00018ED00E000E100E0084B402219687F2093
:1032C0004906490E11431A6882430A431A601A6874
:1032D0008023DB0519691A617047C0460C00002085
:1032E000074B3F2219687F2011401A6882430A4326
:1032F0001A601A688023DB0519691A617047C04695
:103300000C000020074B084A196818688904890EC8
:10331000090202400A431A601A688023DB05196912
:103320001A6170470C000020FF80FFFF084B40220D
:10333000196818684904490E1143064A09020240F7
:103340000A431A601A688023DB0519691A617047FD
:103350000C000020FF80FFFF084B202219687F200F
:103360004906490E11431A6882430A431A601A68D3
:103370008023DB0519691A617047C0460C000020E4
:10338000074B5F2219687F2011401A6882430A4365
:103390001A601A688023DB0519691A617047C046F4
:1033A0000C000020074BBE211A68C90118681140A3
:1033B000054A02400A431A601A688023DB0519692E
:1033C0001A6170470C000020FF80FFFF084B20228D
:1033D000196818684904490E1143064A0902024057
:1033E0000A431A601A688023DB0519691A6170475D
:1033F0000C000020FF80FFFF8023DB05186C80009D
:10340000C00F7047084B102219687F204906490EEB
:1034100011431A6882430A431A601A688023DB0545
:1034200019691A617047C0460C000020074B6F22D3
:1034300019687F2011401A6882430A431A601A688B
:103440008023DB0519691A617047C0460C00002013
:1034500000B50B4B1968002804D04906490E10220C
:10346000114301E06F2211401A687F2082430A4312
:103470001A601A688023DB0519691A6100BDC0460D
:103480000C000020074BDE211A68C90118681140A2
:10349000054A02400A431A601A688023DB0519694D
:1034A0001A6170470C000020FF80FFFF084B1022BC
:1034B000196818684904490E1143064A0902024076
:1034C0000A431A601A688023DB0519691A6170477C
:1034D0000C000020FF80FFFF8023DB05186CC0007C
:1034E000C00F7047084B012219687F204906490E1A
:1034F00011431A6882430A431A601A688023DB0565
:1035000019691A617047C0460C000020074B7E22E3
:1035100019687F2011401A6882430A431A601A68AA
:103520008023DB0519691A617047C0460C00002032
:10353000074BFC211A68C90118681140054A02406E
:103540000A431A601A688023DB0519691A617047FB
:103550000C000020FF80FFFF084B0122196818684B
:103560004904490E1143064A090202400A431A60FF
:103570001A688023DB0519691A6170470C00002066
:10358000FF80FFFF8023DB05186CC001C00F704770
:10359000084B022219687F204906490E11431A6818
:1035A00082430A431A601A688023DB0519691A618D
:1035B0007047C0460C000020074B7D2219687F2011
:1035C00011401A6882430A431A601A688023DB0597
:1035D00019691A617047C0460C000020074BFA2198
:1035E0001A68C90118681140054A02400A431A6066
:1035F0001A688023DB0519691A6170470C000020E6
:10360000FF80FFFF084B0222196818684904490E21
:103610001143064A090202400A431A601A688023CD
:10362000DB0519691A6170470C000020FF80FFFF5D
:103630008023DB05186C8001C00F7047084B042203
:1036400019687F204906490E11431A6882430A43CC
:103650001A601A688023DB0519691A617047C04631
:103660000C000020074B7B2219687F2011401A684C
:1036700082430A431A601A688023DB0519691A61BC
:103680007047C0460C00002000B50B4B196800289D
:1036900004D04906490E0422114301E07B22114067
:1036A0001A687F2082430A431A601A688023DB0568
:1036B00019691A6100BDC0460C000020074BF621B5
:1036C0001A68C90118681140054A02400A431A6085
:1036D0001A688023DB0519691A6170470C00002005
:1036E000FF80FFFF084B0422196818684904490E3F
:1036F0001143064A090202400A431A601A688023ED
:10370000DB0519691A6170470C000020FF80FFFF7C
:103710008023DB05186C4001C00F704710B50C49C1
:103720008023CC7DDB0598693F220434144090430C
:1037300020439861097E0124881C214041180A40D9
:1037400011029869034A02400A439A6110BDC046BB
:103750001E090020FFC0FFFF70B5002303701E4A42
:103760001E4B80241A601B68E40522692361FFF761
:1037700049FFFFF75DFF002821D0FFF7D7FD184D67
:103780007F26226C4023120E32401A4206D0FFF7E9
:103790004FFF002802D0013D002DF2D1FFF748FF76
:1037A000002808D1FFF7B2FEFFF7C2FEFFF740FF87
:1037B0000028FBD00BE0FFF709FE01200AE0FFF72D
:1037C000A5FEFFF7B5FEFFF733FF0028FBD0FFF79C
:1037D000C3FE002070BDC046104F00000C0000204A
:1037E000FFFF0700064B7F2219688023DB05186C5A
:1037F000013990431140021C0A431A647047C046C5
:10380000740800208023DB051A6C7F218A43012184
:103810000A431A6470478023DB05DA690F218A4363
:1038200002210A43DA61DA69F0218A4330210A432E
:10383000DA610C4A11790139C9B25977D8690A4954
:1038400001408020C0020143D961D8690749014085
:10385000A020C0030143D9619279013AD2B2DA774C
:103860007047C04678020020FFFFF0FFFFFF0FFF08
:1038700030B51A4A1A4B11881A4CC9188023DB0537
:1038800089B2188C1984598C002159845088164D9E
:10389000011989B29A8C9984421EDC8C92B2441927
:1038A000DA84A4B21D8D1C85104C001980B25C8D89
:1038B0005885988D9985D88DDA85188E1986588EF9
:1038C0005A86988E9986D88EDA86188F1987588FDF
:1038D0005A87988F9987D98FDA8730BD7802002070
:1038E000FF070000FF030000FF050000FF010000CC
:1038F00030B5224BEE241A68E401144020481A68BF
:103900007F21024022431A601C688022D20515697B
:1039100014611C4CA47C002C16D01C680425640483
:10392000640E2C431D680C4024022840204318607C
:103930001868146910611C687B2020401C688C4347
:10394000211C0143196015E01C6804256406640EFF
:103950002C431D680C408D43291C214319601968B4
:10396000146911611C68F621C90121401C682040BE
:10397000084318601B681169136130BD0C000020FA
:10398000FF80FFFF1E09002000B572B60F4B012219
:103990001A700F4B9A7C0F4B002A07D01A68F62139
:1039A000C901114018680C4A024005E019687B22E1
:1039B00011401A687F2082430A431A601A688023E4
:1039C000DB0519691A6162B600BDC04660000020BF
:1039D0001E0900200C000020FF80FFFF00B572B61A
:1039E000104B00221A70104B9A7C104B1968002A59
:1039F00008D049040422490E114318680C4A0902F0
:103A0000024006E049060422490E11431A687F204D
:103A100082430A431A601A688023DB0519691A6118
:103A200062B600BD600000201E0900200C000020CE
:103A3000FF80FFFF014B18787047C04660000020F0
:103A400000B58023DB05196C8022D2010A431A6479
:103A5000234A802110684900014311601268996867
:103A60009A60196C802212020A431A64196C1D4A6A
:103A70000A401A641C4B7F22597B1C4B114018686A
:103A80001B4A090402400A431A601968A022D205A1
:103A9000906891601868174901408420C00501436F
:103AA00019601968906891601349097849B2002932
:103AB00002D001290CD103E018681049014003E04D
:103AC000186880210904014319601B68916893609C
:103AD0008023DB05196C0A4A0A401A6400BDC046FF
:103AE00018000020FF7FFFFF1E09002010000020AB
:103AF000FFFF80FFFFFFFF802B030020FFFF7FFF02
:103B0000FFBFFFFF044B01221A708023DB05996C75
:103B1000914399641A70704700000020034A012302
:103B200013708022D20553707047C04608000020F1
:103B300000B5064B72B61A78002A04D0C046C046BB
:103B400062B630BFF6E762B600BDC046080000208E
:103B500038B5094B09499A781C795143084B051C23
:103B6000C918084802F064F9064B291C013458436F
:103B7000A14002F05DF938BD1A0A002044FEFFFFA3
:103B8000FE24020040420F00014B18707047C046EF
:103B900002000020054B19688023DB055A690902E1
:103BA000120E090A12060A435A61704704000020E7
:103BB000014B18607047C04604000020054B0122ED
:103BC0001A708023DB055969802252040A435A6126
:103BD0007047C0460100002000B5094B72B61A7844
:103BE000002A04D0C046C04662B630BFF6E762B6CF
:103BF000044A1278002A01D001221A7000BDC04682
:103C00000100002002000020024B18784342584176
:103C10007047C0460100002000B5054B72B61A7807
:103C2000002A03D0C046C04662B6F7E762B600BDC0
:103C30000000002000B50B4B0B4A72B61978002922
:103C400002D11178002904D0C046C04662B630BF08
:103C5000F3E762B6054A1278002A01D001221A70F1
:103C600000BDC0460100002000000020020000202E
:103C700010B51049104B04241960104B1A682243E8
:103C80001A601A680224A2431A601A6801242243A7
:103C90000B4C1A60002222600A4A1160091A116056
:103CA000206811688842FBD21A6801218A431A6091
:103CB00010BDC046FFFFFF0014E000E010E000E090
:103CC00018E000E07402002070B51349134B04247F
:103CD0001960134B134D1A6822431A601A680224A4
:103CE000A2431A601A68012422430F4C1A60002272
:103CF00022600E4A11602E782D7970430135E8401C
:103D0000091A1160206811688842FBD21A680121E3
:103D10008A431A6070BDC046FFFFFF0014E000E058
:103D200010E000E01A0A002018E000E07402002011
:103D300000B50023064A984202DBD31CDB7F4343D5
:103D40000232D27F013052B290401818401800BDA4
:103D50001E090020F0B585B0051C0C1C161C00299E
:103D600005D02B4B0233DB7F5BB2002B4ED0211CE6
:103D7000281CFFF7DDFF2749274F4A7A097A1319D4
:103D8000511802914101CF1900220397844613E094
:103D90002248C156581CC0B2CF0F01907F1803981B
:103DA0007F10C719083700976F463879009F023394
:103DB000B87001278F403A4302988342E8DB154BE5
:103DC0006046DF79614261415B7C79181C194910BA
:103DD00001390134890624050C4322430E49104C55
:103DE000400143180F4F01194C684A60AA1CD2B217
:103DF000C0190271002E07D00B4A01215257914081
:103E00000A1C99699A6101E09A699E6105B0F0BD4A
:103E10001E0900203A030020001000401075000029
:103E20001810004010100040EA74000010B5084B54
:103E300000211B68013B08E0064C580109220019CB
:103E40008418A172013AFBD2013B002BF4DA10BDB9
:103E50007408002000100040F8B5FFF7E7FF0021CC
:103E600001200A1C4042FFF775FF0120404201215A
:103E70000022FFF76FFF0B4E0025B77B09E0201CE7
:103E800000210122FFF766FF0121201C0A1CFFF719
:103E900061FFB27B3379EC19D31801359C42EEDB1C
:103EA000F8BDC0463A030020F0B587B0051C0E1CD3
:103EB00004921F1C002905D0234B0233DB7F5BB229
:103EC000002B3FD0311C281CFFF732FF1F4AC0B225
:103ED0000390537A117AF61859181D4BF6B21A7CD2
:103EE000BB1E581E83415B420593009227E0002FC2
:103EF00008D126245C4317486419245C00980419EF
:103F0000E4B208E0012F04D15801134A4419A45C1B
:103F100001E00598044068460C2282560F4802369C
:103F2000C356F6B2D80F8446634404985B109C468F
:103F30002318500184440A48DBB26246135473B21A
:103F40008B42D4DB07B0F0BD1E0900203A030020ED
:103F5000B80C002036750000230A00201075000000
:103F60000010004070B52C4D2C4BA87A1C68032221
:103F70002B49104000042140014319601968802436
:103F8000E405A068A160697A18680A409104254A8E
:103F9000072602400A431A601A68A168A2601968DD
:103FA000802252030A431A601A68A168A260297A23
:103FB00018681D4A3140490502400A431A601A68D0
:103FC000A168A260A97B0F2925D8EA7B0F2A22D8F5
:103FD0001868090700010009014319600F210A4010
:103FE00018681106114A02400A431A601B68A26849
:103FF000A360FFF7F7FB0E4A636C13436364FFF79C
:104000000AFCFFF735FCEB790A4A1E403302266CA6
:1040100016401E43266470BDB80C00201800002016
:10402000FFFFFCFFFFFFF3FFFFFF1FFFFFFFFFF09E
:10403000FFFF0F00FFF8FFFFF8B58023DB051A68CC
:10404000944A002108201960106014689D689C60E3
:10405000914C21602468DD68DC60FE258F4CED0109
:10406000256024681D691C615C6959619C699961BE
:10407000DC69D9611C6C8024E4011C645C6C5964AB
:104080009C6C874C99642160A024E405A568A1601C
:104090001C6C8449214019641C6880214905214316
:1040A000196081490131C97F002903D01168084393
:1040B000106002E01168814311601168986899608E
:1040C000136804273B43136013688024E405A16848
:1040D000A360136802252B4313601368A168A360D3
:1040E00013680126B34313601368A268A360FFF747
:1040F00039FF6E4B1C229A56A1696D4B12050B407D
:10410000FA401343A361FFF7A7FE6A4A6A4B0020F7
:104110001A606A4B1A683A431A601A68AA431A600E
:10412000FFF78AF8301CFFF787F8281CFFF784F8A0
:104130000320FFF781F8381CFFF77EF80520FFF712
:104140007BF80620FFF778F800200321FFF782F8BC
:10415000301C0021FFF77EF8281C291CFFF77AF895
:10416000311C0320FFF776F8381C311CFFF772F87A
:10417000291C0520FFF76EF806200021FFF76AF8DA
:104180004F4B1A693A431A6162B6281CFFF739F897
:104190000020FFF736F8301CFFF733F80320FFF755
:1041A00030F8381CFFF73AF80520FFF737F80620FB
:1041B000FFF734F8FFF744FCFFF7B0FA3A4BDB7C2B
:1041C000002B25D0354B3F4A1968B140490E0E43AC
:1041D00031061E6816400E431E6019682069216171
:1041E00019684900490E0D4329061D6815400D4305
:1041F0001D6019682069216119684900490E0F4343
:1042000019683F060A403A431A601B682269236115
:104210002D4A80239178DB05197110795968C00700
:104220004900490801435960547903215D682748D2
:104230000C40A403284020435860947924485D68CA
:104240000C402403284020435860D47921485D68FD
:104250000C402840A40220435860127A586811404C
:104260000A021D490140114359601C4B1A781C4B2E
:104270001A701C4B1A781C4B1A700B4B9A781B4BFC
:104280001A70FFF73FF8FFF78DF8FFF7FBF8FFF71D
:104290002FFBF8BD18000020140000200C000020A7
:1042A00010000020FFFF7FFF1E090020B80C002037
:1042B000FFFF00F0FFFFFF0014E000E010E000E06F
:1042C00000ED00E0FFFFFF801A0A0020FF3FFFFF24
:1042D000FFCFFFFFFFF3FFFFFFFCFFFF54000020B5
:1042E0004D0300206C020020710800203E100020C9
:1042F00000B58021C9050B795A1E984209DD01E0FD
:10430000DAB20A7101338342FADD04E0D3B20B71F1
:10431000013A8242FADA00BD08B50C4A0C4B0D494D
:1043200001E001CA01C38B42FBD30B4B0B490022B6
:1043300000E004C38B42FCD3FEF75AFF084B002277
:1043400000E004C38342FCD308BDC0467C6000008B
:10435000000000205800002058000020DC10002041
:104360000C1E002000B5144B1B68012B02D0082B3B
:1043700020D10EE0114B124A1A60124A5A60124BB9
:10438000124A1A60124A5A60124A9A60124ADA6055
:1043900010E00A4B0A4A1A600A4A5A600A4B0F4A4E
:1043A0001A600F4A5A600F4A9A600F4ADA600F4B40
:1043B00001221A7000BDC046401000206400002099
:1043C000695D0000914500001C000020C945000007
:1043D000CD460000F5480000654A00000544000095
:1043E000114400003D4400008D44000063020020A1
:1043F00000B50023C25C0133002AFBD1013BD8B2D7
:1044000000BDC04608B5FFF7BFFAFFF7E7FA08BDE1
:1044100000B5064B1B88602B06D1054B01221A7094
:10442000044B1A78044B1A7000BDC0462C000020C3
:10443000650200200C0000501202002000B50D4B58
:10444000188800B26138032813D80B4B01F08EFC9A
:10445000060A0E02094A12781A700AE0084A920AFD
:104460001A7006E0074A920A1A7002E0064A927928
:104470001A7000BD2C0000200C00005054000020D9
:1044800000640000007400000B0200207047C0466A
:10449000F7B51C1C08AB1F78264B0E1C1B680121AE
:1044A00081400B4244D0002F07D0042C0FD8224B60
:1044B000195D053300911F5D0FE0042C0BD81E4BD6
:1044C000191C0A31095D0F3300911F5D05E00F23B0
:1044D0000027009301E00F210091032C21D0002C34
:1044E00021D021E03A20211C01F0A2FC864205DD0A
:1044F0006B461B78C0B22B70687002E02F70301CC6
:104500006E70361A6043019900236960AB60091828
:10451000F6B20191FFF738FAFFF78CFA0028FBD1C9
:1045200004E0022400E00124044D0192002ED9D1C0
:10453000F7BDC046500000200F6000006C00002056
:1045400038B5114B01221B6882400D1C134219D053
:104550000E4C0B232370081CFFF74AFF6070637832
:10456000072202331340934203D16378013BDBB24D
:10457000637000236560A360FFF706FAFFF75AFA3D
:104580000028FBD138BDC046500000206C00002040
:104590001FB50B4C6B46D8732378002B03D000203B
:1045A0000849FFF7CDFF2378002B07D06A46012189
:1045B00000200F3204230091FFF76AFF1FBDC046A1
:1045C0006A02002023600000F8B5FFF733FA0028E4
:1045D0006DD1374B1A68002A03DC364B1B68002B61
:1045E0003BDD354903230B70344B0433DB7F1C1C4C
:1045F0009A4200DAD3B24B70314A00232C491EE0B4
:10460000013302E05D0000206D18023046193A27A0
:10461000F65F002EF4D0A34213DA58000818808801
:10462000DD00107000B2001240195070181C1030DC
:104630004000085A01339070000AD0700432A3423F
:10464000E0DB1D4B1E4A5A6000229A60FFF79CF97E
:10465000FFF7F0F90028FBD129E01A4A536801332B
:1046600025D0154B13211970116894465970164BBB
:1046700013491D78031C0DE0231C01E05E00664415
:10468000023084190622A75E5C1C002FF4D00B7048
:10469000231C01310020AB42F0DB074B084A986035
:1046A0005A60FFF771F9FFF7C5F90028FBD1F8BD93
:1046B0006C0100201C0100206C0000201E0900205D
:1046C00060090020DC000020D808002008B5744BE9
:1046D0001B881F2B00D183E022D8062B74D010D862
:1046E000032B00D194E005D8012B5ED0022B00D023
:1046F000D4E061E0042B00D196E0052B00D0CDE0A2
:104700008AE01C2B39D005D8072B65D01B2B00D095
:10471000C4E028E01D2B39D01E2B00D0BEE03AE0CB
:10472000422B71D00ED8222B3AD005D8202B5BD04B
:10473000212B00D0B2E05BE0402B5DD0412B00D0BC
:10474000ACE05DE0B12B00D199E005D8602B70D0D2
:10475000B02B00D0A2E088E0B22B00D193E0B32BC5
:1047600000D09BE098E04F4A4F4B12780120196827
:104770009040021C0A431A6090E04A494A4B09786B
:104780001A680120884082431A6087E0454B1A78F6
:10479000464B1A7082E0434B1A78454B1A707DE005
:1047A000404B1A78434B1A7078E03E4B1A78424BD4
:1047B0001A60FDF702F971E03A4B1A783F4B9A7094
:1047C0009878FFF795FD69E0364B1A783B4B9A7065
:1047D000364B0F221A7061E0394B01221A705DE0EE
:1047E000384B01221A7059E00B20FCF789FE55E086
:1047F0000C20FCF785FE51E0334B01221A704DE08E
:10480000324B01221A7049E0314B01221A7045E007
:10481000304B01221A7041E02F4B01221A70214BBC
:104820001A782E4B1A7039E01E4B1A78294B9A7061
:1048300034E01C4B1A782A4B1A701A78294B013A2B
:10484000012A03D840330F221A7027E0264A40334A
:104850001278002A04D0254A403212781A701DE0DE
:10486000234A403212781A7018E00E4B1B78002B46
:1048700014D0FEF723FF0120FEF706FF0EE0094AE1
:104880001178144A1171B222D31A064A9A5C114B5C
:104890005A710122DA7001E0FEF724FF08BDC0461C
:1048A0002C0000200C000050500000204E0300207F
:1048B000620200205E020020401000201A0A002040
:1048C000630200205C0200206702002066020020D4
:1048D000640200200B02002065020020120200206A
:1048E00060020020B80C00205D0200209A740000D5
:1048F0004A74000030B54E4B1B88312B73D00DD855
:104900002E2B51D005D8002B16D01D2B00D07EE0C9
:1049100017E02F2B52D0302B79D157E0372B67D0AF
:1049200004D8342B35D0352B71D137E0392B69D0F1
:1049300063D3862B6BD109E03E4B5A7B3E4B1A70FA
:1049400074E03E4B1A783C4B1A706FE03C493D4A8C
:104950000B68002B0FD110783749087050783A490E
:1049600008705268D118394C087819190133087049
:10497000062BF7D15AE05268002308682E4DC01864
:10498000023810180478581901330470082BF4D138
:104990004CE02F4B1A68284B1A6047E08023DB0558
:1049A0001A79254B1A7041E0254B23491A68294B87
:1049B000D3181A685B680A604B6037E01D4B1A1CFD
:1049C0002C3211781C4A002907D109E0194B1A1C16
:1049D0002C321178184A002902D1DB8C138025E093
:1049E0001B8D138022E0134B1A78134B1A701DE0B5
:1049F000194B1A78104B1A7018E0184B1A780E4B96
:104A00001A7013E00B4B9A780B4B1A700EE0903B28
:104A10009AB2132A0AD80A4A5B01126806499B18FF
:104A20000F4A9B181A685B680A604B6030BDC0462D
:104A30002C0000201E0900200C0000504E03002016
:104A4000300000206C0000200D0000500E000050CF
:104A50007808002021090020540000206C0200206A
:104A6000230A002008B5084B1B88862B0BD1074B67
:104A70009A68012A02DC9A6801329A609B68022BCC
:104A800001D1FEF7ABFF08BD2C0000206C00002018
:104A90007FB5304C039023780D1C161C002B03D0DF
:104AA00001202D49FFF74CFD2378002B06D0012172
:104AB000081C03AA04230091FFF7EAFC274B039983
:104AC0001A78274B002A13D11A1C4A320020125E92
:104AD0008E1B964205DC1A1C4C320020125E964258
:104AE00006DA2048012202701F4802701F48027037
:104AF0005B78002B04D01E4B5B5D594389110391F9
:104B00001C4B6A00D05A1C4B0399D45EC008144A4F
:104B100089B2041B641A567C24B2184BB44202DCDE
:104B20007642B44202DA00245C5505E05C5D967C76
:104B3000A64201D001345C55431A9BB2927E19B251
:104B4000914202DB0E4A012111700B4A6D00AB52FB
:104B50007FBDC0466A02002027600000630200207B
:104B6000B80C00203F1000207008002044020020F4
:104B7000927B000088020020AC0C0020140A002068
:104B8000E00F0020F0B5514B89B01B78002B03D00B
:104B900000204F49FFF7D4FC4E4B00221A704E4BB9
:104BA000111C181C303002C300228342FBD14B4B36
:104BB0004B491A7001230B704A490B704A4BD87D40
:104BC000197E013804901B7D4C1E0593474BA401B0
:104BD000E4184B00101C07938C4633E065465619C9
:104BE000434FF301DB191B8807990393414D530091
:104BF0005B185B190C216F463F4DCF5B7101023B87
:104C000069181F800691049B18E0991CB5013B4F61
:104C100069184900C95B059F002F06D0DF1CED19FC
:104C2000364F6D00ED5B491949105D00069F6153D9
:104C30000125FD54039D013B491B40185F1CE4D135
:104C4000013A403C2E498C42C8D1274B6146DB7D5E
:104C5000594301F0EDF82B4B051C588C2A4C0028C9
:104C600002D14023236007E08001291C01F0E0F815
:104C70006E2800DD6E202060144C2378002B03D0BA
:104C800000202249FFF75CFC1E4B214A5B8C5580BB
:104C900013802378002B06D00123022100930020EB
:104CA0000B1CFFF7F5FB1B4B1B491A781B4C5000E4
:104CB0000023401804E015190021E9545D00415318
:104CC000013B99180131F6D109B0F0BD6A0200200C
:104CD0002F6000004C030020AC100020A40F002027
:104CE0007C080020EC0F00201E0900205203002049
:104CF0000240004084100020030A002000400040D1
:104D000012030020B80C0020D408002038600000F6
:104D100044100020D808002088020020140A002037
:104D2000F0B58F4A002313708E4A8BB013708E4AF1
:104D300013708E4A13708E4B1B78002B03D001200A
:104D40008C49FFF7FDFB00248B4D894E10E0337832
:104D5000002B0CD08949E201EB7D5218297D0120FE
:104D6000C91800230093C9B20223FFF791FB013455
:104D70002A7E9442EBDB824B1B78002B00D1ECE0C7
:104D8000804B1B78002B22D17F49097800291ED047
:104D90007E495401ED7D1E1C641808E0101C0021A2
:104DA00001E0E7187E5420390138FAD20133AB42D2
:104DB000F4DB774B5201197874485218002312180B
:104DC00001E00020D054013B58180130F9D16E4B5E
:104DD0006C4A19781B781170002B00D17CE0664A70
:104DE0006C49D37D177E127D096803926A4A013FA0
:104DF0005478059104942D3212787D01013B06927E
:104E00000995BC4641E09A1C099E644C5F4F07928D
:104E10005A0098191219C0196146089232E04C1CC8
:104E2000079DA40162195E4E039F5200925B002F02
:104E300005D0DD1C64196400A45B12195210049C97
:104E4000002C07D0574D4C01ED182C5D059D624399
:104E50006A431213089E8C01355B069EED080778A5
:104E6000AC1A002E06D05400A2187CB22C1B1419C8
:104E7000A4102C1BA74203DAFF2C00DDFF240470D2
:104E8000013920384F1CCAD1013B591CBBD1404BC2
:104E90003E491A78384B187E00234001801840188C
:104EA0000FE04149540064185900645AC55626B2AF
:104EB000291CB54200DA211C09B2FF2900DDFF21BF
:104EC000C154013B99180131EBD1284A01231370D9
:104ED000244A1370224A1370254B1B78002B3CD0B8
:104EE000324B1B685A0238D5234A8024167ED17D66
:104EF000127D731E8A187600013200252C48240684
:104F00000392B4461DE066462A4FAA19D219023A06
:104F100016885F1CBF01039A059606970DE0069E52
:104F2000B1184F001E49059E7F5AB91B8C4200DA0A
:104F30000C1C884200DD081C013A012AEFD1013B1C
:104F4000023D5F1CDFD11C4A0123022150801480E6
:104F5000162000930B1CFFF79BFA0BB0F0BDC04668
:104F60001C09002070080020E00F00203F100020E6
:104F70006A0200202B6000001E09002084400040CF
:104F80004C0300206102002062020020120D00206C
:104F9000D8080020D4080020B80C002052030020BC
:104FA0000040004012790000AC0C002050000020AE
:104FB000FFFFFF7F8410002044100020F0B5C74B96
:104FC0009FB01B78002B00D004E1C548C549037889
:104FD0000C785E1CA21CB601B618C34A7600B65AFD
:104FE000C24A5D00C24FAD5A4622BA5E751B012609
:104FF0001D96954200DCA7E1BE4D2A7E934200D368
:105000009DE1BD4EBD4F0023FF217360336073826D
:105010007381338233813B60BB607960F960501EDD
:105020000B9000D2A2E1B34AB14B127DB14E059272
:105030005B7CAF4F0E93B24BF67D1B6807967F7873
:105040000F93B04B0E981B7840420993A84B0897DA
:1050500018900B9D9B7C6A01A54D1B932D23EB5C47
:1050600018261093AE571C270D96EF57192013974B
:1050700028560023A4491C9004931693A34B0027A1
:10508000D3180C93A24B00250020002603950A9705
:105090001490FF2588181997FF225B1A059F129616
:1050A00017951A96029015921193079800283ED0F2
:1050B0000B9E0B9A974B01369101B6018A4CC91889
:1050C000BC4600230096009E9D1C7219059F52004D
:1050D000125B002F05D0D81C30184000005B8218EE
:1050E00052100898002807D00298119F3E18F05CD3
:1050F0000F9E424372431213099F002F00D06BE0B2
:105100006E4610270888BD5F801AA84201DD87B26D
:1051100004976E460C27BD5FA84201DA80B2039067
:105120000A80079F013302319F42CCDC6746029818
:105130000C9A0B9B2038203A02900C92013B0B9367
:10514000B3D26D46684610260C22765B125A6A4D21
:10515000129B281C2E826A822B6028266D46765B65
:10516000664A159B0681169D1498179ED36019AB4D
:105170009060566015601A985F4A1D88506055818E
:105180006E462822905F002F0FD05A4E337E013B8F
:105190000BD3F57D5449023500245A1C9201521953
:1051A0005200565A5452013BF7D2514F5A49BB7ED6
:1051B0005A4ADD0FC41709789842654115700029D5
:1051C00008D11D98002805D0012313705449554A71
:1051D0000B7013701FB0F0BD02980F88C656FF0801
:1051E000BE1B069601976E461027BE5FB446069E0C
:1051F000B01A604501DD87B204976E460C27BE5F8A
:10520000B04201DA86B203960E9FB84232DC189F94
:10521000B8422FDB0C9FF85C1B9F46B2BE4202D007
:105220000C9E0130F054019F109EB81A002E06D03B
:105230005000069F8218D019019A8010101A061C7F
:105240007F361BDA029F8022FA541C9E1A9F821B13
:10525000BF181A9719AE0022B25E904201DC80B2EC
:1052600019900098002645196D002A5B059A2E5367
:10527000944656E70C980026C654D4E77E2856DD9F
:10528000029E7F22F2540D9A904203DB129E821AF4
:10529000B61812966F462826F25F904244DA82B220
:1052A000139EB04211DB149F0B98874200DA1490D2
:1052B000159E0B9FBE4200DD15971698984200DAA6
:1052C0001693179EB34200DA17930098059E45196E
:1052D0006D00285BB4462A5323E7C0461C09002012
:1052E0000802002009020020004000408410002035
:1052F000B80C00201E090020F0010020940F0020AF
:10530000D40800204C030020120D0020230A0020A6
:105310001279000052030020630200207008002070
:105320003F1000204402002082B20A92B8E7029F98
:10533000F8540028A7DA1C9FB8428BDC85E70134BB
:10534000002303700C705CE60A4F4822BE5E012207
:10535000B54207DAD2B21D92074D2A7E934200D29F
:105360004FE6ECE70022D2B21D92F5E7024D002095
:105370002F7D08E7B80C00201E090020F7B5002497
:10538000274D284E10E0284A33571257591C023235
:1053900089018918254A4900885A254A5B00211C41
:1053A0009A5AFFF775FB01342B789C42EBDB214BBB
:1053B0001E4918789A78841C0192DE7800230094A4
:1053C0000DE001329401E4196400655A002565522C
:1053D00002E0009C0022E718B242F2DB0133019D9B
:1053E0001A18AA42F5DB134B10495878DE78421C94
:1053F00001235B42009200229F1C08E0009DAC1834
:10540000A401E4196400655A00256552013214189C
:10541000B442F3DB019A01339342ECDBF7BDC046A3
:10542000D8080020307500002A75000000400040B8
:10543000841000203A030020F0B5114BDA780023E5
:1054400054012418551E640015E099180D4EC90129
:105450008919461C07D10E880B4F99184900C919A4
:1054600002390E8006E00E8808499F016118C919AB
:1054700040390E80013BE9180131E6D1F0BDC0464C
:105480003A03002002400040841000205203002014
:10549000F0B58DB00A910B92584B411C0CD1584A73
:1054A0005849127E013A0392DA785E78540000235C
:1054B000551C641894460EE0DD7B5A79AA18013A0F
:1054C00010E0514AE918C90189180A885F00E253BF
:1054D0000A8800220A80013B6746DA19B242F0DAF4
:1054E000039A00255601494C361800237600111CFA
:1054F000089307930693059303940996AC4655E0E9
:10550000451C04D13F4D56007519ED5A04E0404D3D
:10551000099F7E195D01755B4E1C3B4F0496F60199
:10552000F61937882DB23EB23A4FAE1B5500EF192F
:10553000F517FE5276196E400F1C0125AF43B94294
:1055400009D1079DAD190795B44200DD341C069FB3
:10555000B7420BDB0DE0089D039FAD190895B742DC
:1055600000DD0396059DB54202DB02E0069600E0F1
:105570000596049EF501244EAD19471C0ED12F88C7
:10558000204E04975700BE19029610276E46BF5B47
:10559000029EF7522E8800262E8005E02F881C4E92
:1055A000099DAE195D0177530139023B6145A7DAC8
:1055B000079E089F0A99F319059A039D069E0B60A2
:1055C000341B531B9C4200DA1C1C0B9F3C60124C8A
:1055D0002378002B03D00B201049FEF7B1FF23786E
:1055E000002B08D0064B0B20197E01230093094A9B
:1055F0000223FEF74DFF0DB0F0BDC0463A03002078
:105600001E0900208410002002400040FFFF00001F
:1056100052030020441000206A020020496000006C
:10562000F7B5324E3378002B5FD0314B1C78002C0D
:1056300018D003202F49FEF783FF00252E4C2F4F53
:105640000CE03378002B07D00023F97D0320009372
:10565000221C0123FEF71CFF013520343B7E9D42B6
:10566000EFDB42E001202649FEF76AFF3378002B8A
:1056700007D0244B0120D978234A02230094FEF757
:1056800007FF224B1B78002B2FD0214B1B78002BC0
:1056900003D0204B1B68002B27D0144B1B78002B0A
:1056A00003D003201C49FEF74BFF134C0025134E7B
:1056B0000E4F0BE03B78002B06D0F17D0123032039
:1056C000221C0093FEF7E4FE01352034337E9D4218
:1056D000F0DB3B78002B08D0104B03201978012316
:1056E00000930F4A0223FEF7D3FEF7BD6A020020A3
:1056F000620200204E600000120D00201E090020F2
:10570000546000003A030020841000204C03002065
:105710005E0200201C0100205B600000D808002011
:10572000AC0C0020F0B5B94B85B01D78002D28D009
:10573000B74BB84E1C78B84B61B218685B688A00EA
:10574000C31800250F1C93510C374A1C2B1CC81A78
:1057500000D5F81A800080592D18101C0B2A00DD86
:105760000C388000305801332D1A0132062BEED14F
:10577000621CA74BD2B21A7052B20B2A01DD002272
:105780001A70A64B1B78002B00D03CE1A44B1420D0
:105790001B5E9D4202DAA34B01221A709E4B10221F
:1057A0009E5E12241B5FF61A984B1878002816D1BB
:1057B0009D4B9E4F1B689E4CBB8023783E80002BE8
:1057C00002D09C49FEF7BCFE2378002B07D00123B2
:1057D0000221009300203A1C0B1CFEF759FE904B4F
:1057E0009A7D964207DC944B1A7851B2022908DC64
:1057F00001321A7005E0DB7D9E4202DB8E4B0022F7
:105800001A70854B894A59681B681580CB185380DC
:10581000874B96801B78002B06D00123009319201C
:1058200003210223FEF734FE7E4B784C1B78002BBD
:1058300000D181E07E4D2B78002B03D019207F49C9
:10584000FEF77EFE7C4B1B78002B05D12278002AC8
:1058500072D0744A13706FE0032B6DD12B78002B3C
:1058600003D000207649FEF76BFE6849754B0A7835
:105870007548002A2AD101240C701D7EDC7D6E1E25
:10588000724B71010919203B49001B194118029301
:1058900018E0CA5AD200CA5200223A540AE0029FC3
:1058A00068013F18BC46604600235701C71B03939D
:1058B0009446181C01380219023B0132E9D16246B4
:1058C00001324039B31A0133E9D12EE01D7EDC7D6F
:1058D0006B1E590102935D4B0919203B49001B19AE
:1058E000411800220393A44614E03456CF5AE40032
:1058F0003C1BCC5206E0039C6E01A6190023540108
:10590000181C361B01386746C419023B0134ECD120
:10591000013240390298831A0133ECD13D4B002209
:10592000191C303104C38B42FCD13E4B00221A704B
:10593000474B01221A7066E02278464B002A06D1B6
:10594000434A012111701A6852181A605BE0002462
:105950001C603C4B3D4CD87D197E314B01399B7C02
:105960004D0102933C4B461E374F28184000E41A65
:10597000EA18C0190394B44617E0D556029EB54202
:1059800009D1039F0519023DBE18F6562F88BE1B8C
:105990002E800025D554013B023C01E063460024E3
:1059A0005E1CEAD10139203A40384F1CF6D12B4B0E
:1059B0001B68580727D51E4B1B78002B03D00220ED
:1059C0002749FEF7BDFD204D00241E4E14E0EF5A7E
:1059D0001648FF08C752013202338A42F7DB144BE4
:1059E0001B78002B06D00020009002200F4A031CD9
:1059F000FEF74EFD01344035337E9C4203DA00232E
:105A0000F17D1A1CE9E705B0F0BDC0464C0300204B
:105A1000A40F0020AC100020F0010020700800202E
:105A2000B80C0020EC0F0020E40F002044100020F0
:105A30006A0200205E6000007C08002065600000B3
:105A40006E6000001E09002052030020120D00208D
:105A50003F1000203C020020230A002050000020BC
:105A600077600000F0B5264B85B01E78002E27D158
:105A7000244B25481B78877CC07E013B2349244C5E
:105A80005A0040B25118234D12190390BC4615E03C
:105A9000E85C60450FD114880888002C03D0039E71
:105AA00007B2B74203DAC000241A148001E0201ABA
:105AB00010800020E854013B0239023A5E1CE7D115
:105AC000104B154C197812484D006D424A00023DAA
:105AD0000023141903E01618F65AF608E652023BA2
